{
  "_format": "hh-sol-artifact-1",
  "contractName": "TokenTicketz",
  "sourceName": "contracts/TokenTicketz.sol",
  "abi": [
    {
      "inputs": [
        {
          "internalType": "address",
          "name": "_ticketTokenAddress",
          "type": "address"
        },
        {
          "internalType": "address",
          "name": "_eventTokenAddress",
          "type": "address"
        }
      ],
      "stateMutability": "nonpayable",
      "type": "constructor"
    },
    {
      "inputs": [
        {
          "internalType": "uint256",
          "name": "_eventId",
          "type": "uint256"
        }
      ],
      "name": "checkEventById",
      "outputs": [
        {
          "components": [
            {
              "internalType": "uint256",
              "name": "eventId",
              "type": "uint256"
            },
            {
              "internalType": "string",
              "name": "eventName",
              "type": "string"
            },
            {
              "internalType": "uint256",
              "name": "eventPrice",
              "type": "uint256"
            },
            {
              "internalType": "string",
              "name": "venueDetails",
              "type": "string"
            },
            {
              "internalType": "uint256",
              "name": "eventStartTimestamp",
              "type": "uint256"
            },
            {
              "internalType": "uint256",
              "name": "eventEndTimestamp",
              "type": "uint256"
            },
            {
              "internalType": "uint256",
              "name": "saleStartTimestamp",
              "type": "uint256"
            },
            {
              "internalType": "uint256",
              "name": "saleEndTimestamp",
              "type": "uint256"
            },
            {
              "internalType": "bool",
              "name": "isEventExpired",
              "type": "bool"
            },
            {
              "internalType": "bool",
              "name": "isSaleExpired",
              "type": "bool"
            },
            {
              "internalType": "bool",
              "name": "isSaleLive",
              "type": "bool"
            },
            {
              "internalType": "address",
              "name": "tokenRedeemerAddress",
              "type": "address"
            }
          ],
          "internalType": "struct TokenTicketz.eventDetails",
          "name": "_event",
          "type": "tuple"
        }
      ],
      "stateMutability": "view",
      "type": "function"
    },
    {
      "inputs": [
        {
          "internalType": "uint256",
          "name": "_eventId",
          "type": "uint256"
        }
      ],
      "name": "checkForIsEventExpired",
      "outputs": [
        {
          "internalType": "bool",
          "name": "_isEventExpired",
          "type": "bool"
        }
      ],
      "stateMutability": "nonpayable",
      "type": "function"
    },
    {
      "inputs": [
        {
          "internalType": "uint256",
          "name": "_eventId",
          "type": "uint256"
        }
      ],
      "name": "checkForIsEventExpiredForRedeemer",
      "outputs": [
        {
          "internalType": "bool",
          "name": "",
          "type": "bool"
        }
      ],
      "stateMutability": "view",
      "type": "function"
    },
    {
      "inputs": [
        {
          "internalType": "uint256",
          "name": "_eventId",
          "type": "uint256"
        }
      ],
      "name": "checkForIsSaleExpired",
      "outputs": [
        {
          "internalType": "bool",
          "name": "_isSaleExpired",
          "type": "bool"
        }
      ],
      "stateMutability": "nonpayable",
      "type": "function"
    },
    {
      "inputs": [
        {
          "internalType": "uint256",
          "name": "_eventId",
          "type": "uint256"
        }
      ],
      "name": "checkForIsSaleLive",
      "outputs": [
        {
          "internalType": "bool",
          "name": "_isSaleLive",
          "type": "bool"
        }
      ],
      "stateMutability": "nonpayable",
      "type": "function"
    },
    {
      "inputs": [],
      "name": "checkIsUserEventManager",
      "outputs": [
        {
          "internalType": "bool",
          "name": "_isEventManager",
          "type": "bool"
        }
      ],
      "stateMutability": "view",
      "type": "function"
    },
    {
      "inputs": [
        {
          "internalType": "uint256",
          "name": "_ticketId",
          "type": "uint256"
        }
      ],
      "name": "checkTicketById",
      "outputs": [
        {
          "components": [
            {
              "internalType": "uint256",
              "name": "tokenId",
              "type": "uint256"
            },
            {
              "internalType": "uint256",
              "name": "eventId",
              "type": "uint256"
            },
            {
              "internalType": "string",
              "name": "eventName",
              "type": "string"
            },
            {
              "internalType": "uint256",
              "name": "eventPrice",
              "type": "uint256"
            },
            {
              "internalType": "string",
              "name": "venueDetails",
              "type": "string"
            },
            {
              "internalType": "uint256",
              "name": "eventStartTimestamp",
              "type": "uint256"
            },
            {
              "internalType": "uint256",
              "name": "eventEndTimestamp",
              "type": "uint256"
            },
            {
              "internalType": "bool",
              "name": "isEventExpired",
              "type": "bool"
            },
            {
              "internalType": "bool",
              "name": "isBurned",
              "type": "bool"
            },
            {
              "internalType": "address",
              "name": "ticketOwnerAddress",
              "type": "address"
            }
          ],
          "internalType": "struct TokenTicketz.ticketDetails",
          "name": "_ticket",
          "type": "tuple"
        }
      ],
      "stateMutability": "view",
      "type": "function"
    },
    {
      "inputs": [],
      "name": "checkTotalEventsRegistered",
      "outputs": [
        {
          "internalType": "uint256",
          "name": "tokenBalance",
          "type": "uint256"
        }
      ],
      "stateMutability": "view",
      "type": "function"
    },
    {
      "inputs": [],
      "name": "checkTotalTicektsSold",
      "outputs": [
        {
          "internalType": "uint256",
          "name": "tokenBalance",
          "type": "uint256"
        }
      ],
      "stateMutability": "view",
      "type": "function"
    },
    {
      "inputs": [
        {
          "internalType": "string",
          "name": "_eventName",
          "type": "string"
        },
        {
          "internalType": "uint256",
          "name": "_eventPrice",
          "type": "uint256"
        },
        {
          "internalType": "string",
          "name": "_venueDetails",
          "type": "string"
        },
        {
          "internalType": "uint256",
          "name": "_eventStartTime",
          "type": "uint256"
        },
        {
          "internalType": "uint256",
          "name": "_eventEndTime",
          "type": "uint256"
        },
        {
          "internalType": "uint256",
          "name": "_saleStartTimestamp",
          "type": "uint256"
        },
        {
          "internalType": "uint256",
          "name": "saleEndTimestamp",
          "type": "uint256"
        },
        {
          "internalType": "address",
          "name": "_TokenRedeemerAddress",
          "type": "address"
        }
      ],
      "name": "createEventForUser",
      "outputs": [],
      "stateMutability": "nonpayable",
      "type": "function"
    },
    {
      "inputs": [],
      "name": "eventTokenAddress",
      "outputs": [
        {
          "internalType": "address",
          "name": "",
          "type": "address"
        }
      ],
      "stateMutability": "view",
      "type": "function"
    },
    {
      "inputs": [],
      "name": "getAllEvents",
      "outputs": [
        {
          "components": [
            {
              "internalType": "uint256",
              "name": "eventId",
              "type": "uint256"
            },
            {
              "internalType": "string",
              "name": "eventName",
              "type": "string"
            },
            {
              "internalType": "uint256",
              "name": "eventPrice",
              "type": "uint256"
            },
            {
              "internalType": "string",
              "name": "venueDetails",
              "type": "string"
            },
            {
              "internalType": "uint256",
              "name": "eventStartTimestamp",
              "type": "uint256"
            },
            {
              "internalType": "uint256",
              "name": "eventEndTimestamp",
              "type": "uint256"
            },
            {
              "internalType": "uint256",
              "name": "saleStartTimestamp",
              "type": "uint256"
            },
            {
              "internalType": "uint256",
              "name": "saleEndTimestamp",
              "type": "uint256"
            },
            {
              "internalType": "bool",
              "name": "isEventExpired",
              "type": "bool"
            },
            {
              "internalType": "bool",
              "name": "isSaleExpired",
              "type": "bool"
            },
            {
              "internalType": "bool",
              "name": "isSaleLive",
              "type": "bool"
            },
            {
              "internalType": "address",
              "name": "tokenRedeemerAddress",
              "type": "address"
            }
          ],
          "internalType": "struct TokenTicketz.eventDetails[]",
          "name": "",
          "type": "tuple[]"
        }
      ],
      "stateMutability": "view",
      "type": "function"
    },
    {
      "inputs": [],
      "name": "getAllTickets",
      "outputs": [
        {
          "components": [
            {
              "internalType": "uint256",
              "name": "tokenId",
              "type": "uint256"
            },
            {
              "internalType": "uint256",
              "name": "eventId",
              "type": "uint256"
            },
            {
              "internalType": "string",
              "name": "eventName",
              "type": "string"
            },
            {
              "internalType": "uint256",
              "name": "eventPrice",
              "type": "uint256"
            },
            {
              "internalType": "string",
              "name": "venueDetails",
              "type": "string"
            },
            {
              "internalType": "uint256",
              "name": "eventStartTimestamp",
              "type": "uint256"
            },
            {
              "internalType": "uint256",
              "name": "eventEndTimestamp",
              "type": "uint256"
            },
            {
              "internalType": "bool",
              "name": "isEventExpired",
              "type": "bool"
            },
            {
              "internalType": "bool",
              "name": "isBurned",
              "type": "bool"
            },
            {
              "internalType": "address",
              "name": "ticketOwnerAddress",
              "type": "address"
            }
          ],
          "internalType": "struct TokenTicketz.ticketDetails[]",
          "name": "",
          "type": "tuple[]"
        }
      ],
      "stateMutability": "view",
      "type": "function"
    },
    {
      "inputs": [
        {
          "internalType": "uint256",
          "name": "_tokenId",
          "type": "uint256"
        },
        {
          "internalType": "uint256",
          "name": "_eventId",
          "type": "uint256"
        },
        {
          "internalType": "address",
          "name": "_to",
          "type": "address"
        }
      ],
      "name": "giftToken",
      "outputs": [],
      "stateMutability": "nonpayable",
      "type": "function"
    },
    {
      "inputs": [
        {
          "internalType": "uint256",
          "name": "_eventId",
          "type": "uint256"
        }
      ],
      "name": "mintTicketNFT",
      "outputs": [],
      "stateMutability": "payable",
      "type": "function"
    },
    {
      "inputs": [
        {
          "internalType": "uint256",
          "name": "_tokenId",
          "type": "uint256"
        },
        {
          "internalType": "address",
          "name": "_tokenOwnerAddress",
          "type": "address"
        },
        {
          "internalType": "uint256",
          "name": "_eventId",
          "type": "uint256"
        }
      ],
      "name": "redeemTicketNFT",
      "outputs": [],
      "stateMutability": "nonpayable",
      "type": "function"
    },
    {
      "inputs": [],
      "name": "refreshEvents",
      "outputs": [],
      "stateMutability": "nonpayable",
      "type": "function"
    },
    {
      "inputs": [],
      "name": "refreshTickets",
      "outputs": [],
      "stateMutability": "nonpayable",
      "type": "function"
    },
    {
      "inputs": [],
      "name": "ticketTokenAddress",
      "outputs": [
        {
          "internalType": "address",
          "name": "",
          "type": "address"
        }
      ],
      "stateMutability": "view",
      "type": "function"
    }
  ],
  "bytecode": "0x60806040523480156200001157600080fd5b50604051620058a3380380620058a383398181016040528101906200003791906200012b565b81600160006101000a81548173ffffffffffffffffffffffffffffffffffffffff021916908373ffffffffffffffffffffffffffffffffffffffff16021790555080600260006101000a81548173ffffffffffffffffffffffffffffffffffffffff021916908373ffffffffffffffffffffffffffffffffffffffff160217905550505062000172565b600080fd5b600073ffffffffffffffffffffffffffffffffffffffff82169050919050565b6000620000f382620000c6565b9050919050565b6200010581620000e6565b81146200011157600080fd5b50565b6000815190506200012581620000fa565b92915050565b60008060408385031215620001455762000144620000c1565b5b6000620001558582860162000114565b9250506020620001688582860162000114565b9150509250929050565b61572180620001826000396000f3fe6080604052600436106101145760003560e01c80636a47767b116100a05780638abe00fa116100645780638abe00fa146103ba578063a9431ea8146103d1578063c27a500d146103fa578063ec1cd76014610425578063f4692b091461045057610114565b80636a47767b146102f45780636abea9281461031f5780636dc8e1db1461035c5780636ecba3e31461038757806384ec65801461039e57610114565b80631d349d1f116100e75780631d349d1f146101d75780633cac715a146102145780633f63cba614610251578063485c3d361461028e57806358434ae2146102b757610114565b806303e96fe314610119578063051057ea146101445780630c9557291461016f57806311cb56c01461019a575b600080fd5b34801561012557600080fd5b5061012e610479565b60405161013b91906145c3565b60405180910390f35b34801561015057600080fd5b506101596107d3565b60405161016691906145f4565b60405180910390f35b34801561017b57600080fd5b506101846107f9565b60405161019191906145f4565b60405180910390f35b3480156101a657600080fd5b506101c160048036038101906101bc919061464f565b61081f565b6040516101ce919061468b565b60405180910390f35b3480156101e357600080fd5b506101fe60048036038101906101f9919061464f565b610d57565b60405161020b919061468b565b60405180910390f35b34801561022057600080fd5b5061023b6004803603810190610236919061464f565b610fb0565b6040516102489190614787565b60405180910390f35b34801561025d57600080fd5b506102786004803603810190610273919061464f565b6111c0565b60405161028591906148b4565b60405180910390f35b34801561029a57600080fd5b506102b560048036038101906102b09190614902565b6113f5565b005b3480156102c357600080fd5b506102de60048036038101906102d9919061464f565b611835565b6040516102eb919061468b565b60405180910390f35b34801561030057600080fd5b50610309612024565b6040516103169190614964565b60405180910390f35b34801561032b57600080fd5b506103466004803603810190610341919061464f565b6120bc565b604051610353919061468b565b60405180910390f35b34801561036857600080fd5b506103716125b7565b60405161037e919061468b565b60405180910390f35b34801561039357600080fd5b5061039c61260b565b005b6103b860048036038101906103b3919061464f565b6126ea565b005b3480156103c657600080fd5b506103cf612d3a565b005b3480156103dd57600080fd5b506103f860048036038101906103f3919061497f565b612e2d565b005b34801561040657600080fd5b5061040f6138cf565b60405161041c9190614b9f565b60405180910390f35b34801561043157600080fd5b5061043a613c4e565b6040516104479190614964565b60405180910390f35b34801561045c57600080fd5b5061047760048036038101906104729190614cf6565b613ce6565b005b60606000600760003373ffffffffffffffffffffffffffffffffffffffff1673ffffffffffffffffffffffffffffffffffffffff16815260200190815260200160002080548060200260200160405190810160405280929190818152602001828054801561050657602002820191906000526020600020905b8154815260200190600101908083116104f2575b505050505090506000815167ffffffffffffffff81111561052a57610529614bcb565b5b60405190808252806020026020018201604052801561056357816020015b6105506141c2565b8152602001906001900390816105485790505b50905060005b82518110156107ca57600083828151811061058757610586614de4565b5b602002602001015190506000600660008381526020019081526020016000206040518061014001604052908160008201548152602001600182015481526020016002820180546105d690614e42565b80601f016020809104026020016040519081016040528092919081815260200182805461060290614e42565b801561064f5780601f106106245761010080835404028352916020019161064f565b820191906000526020600020905b81548152906001019060200180831161063257829003601f168201915b505050505081526020016003820154815260200160048201805461067290614e42565b80601f016020809104026020016040519081016040528092919081815260200182805461069e90614e42565b80156106eb5780601f106106c0576101008083540402835291602001916106eb565b820191906000526020600020905b8154815290600101906020018083116106ce57829003601f168201915b5050505050815260200160058201548152602001600682015481526020016007820160009054906101000a900460ff161515151581526020016007820160019054906101000a900460ff161515151581526020016007820160029054906101000a900473ffffffffffffffffffffffffffffffffffffffff1673ffffffffffffffffffffffffffffffffffffffff1673ffffffffffffffffffffffffffffffffffffffff16815250509050808484815181106107aa576107a9614de4565b5b6020026020010181905250505080806107c290614ea2565b915050610569565b50809250505090565b600260009054906101000a900473ffffffffffffffffffffffffffffffffffffffff1681565b600160009054906101000a900473ffffffffffffffffffffffffffffffffffffffff1681565b600080600360003373ffffffffffffffffffffffffffffffffffffffff1673ffffffffffffffffffffffffffffffffffffffff1681526020019081526020016000206000848152602001908152602001600020604051806101800160405290816000820154815260200160018201805461089890614e42565b80601f01602080910402602001604051908101604052809291908181526020018280546108c490614e42565b80156109115780601f106108e657610100808354040283529160200191610911565b820191906000526020600020905b8154815290600101906020018083116108f457829003601f168201915b505050505081526020016002820154815260200160038201805461093490614e42565b80601f016020809104026020016040519081016040528092919081815260200182805461096090614e42565b80156109ad5780601f10610982576101008083540402835291602001916109ad565b820191906000526020600020905b81548152906001019060200180831161099057829003601f168201915b50505050508152602001600482015481526020016005820154815260200160068201548152602001600782015481526020016008820160009054906101000a900460ff161515151581526020016008820160019054906101000a900460ff161515151581526020016008820160029054906101000a900460ff161515151581526020016008820160039054906101000a900473ffffffffffffffffffffffffffffffffffffffff1673ffffffffffffffffffffffffffffffffffffffff1673ffffffffffffffffffffffffffffffffffffffff168152505090508060a001516103e842610a9a9190614eea565b1015610aa95760009150610d51565b60018161010001901515908115158152505080600360003373ffffffffffffffffffffffffffffffffffffffff1673ffffffffffffffffffffffffffffffffffffffff1681526020019081526020016000206000858152602001908152602001600020600082015181600001556020820151816001019081610b2b91906150d8565b50604082015181600201556060820151816003019081610b4b91906150d8565b506080820151816004015560a0820151816005015560c0820151816006015560e082015181600701556101008201518160080160006101000a81548160ff0219169083151502179055506101208201518160080160016101000a81548160ff0219169083151502179055506101408201518160080160026101000a81548160ff0219169083151502179055506101608201518160080160036101000a81548173ffffffffffffffffffffffffffffffffffffffff021916908373ffffffffffffffffffffffffffffffffffffffff1602179055509050508060046000858152602001908152602001600020600082015181600001556020820151816001019081610c5591906150d8565b50604082015181600201556060820151816003019081610c7591906150d8565b506080820151816004015560a0820151816005015560c0820151816006015560e082015181600701556101008201518160080160006101000a81548160ff0219169083151502179055506101208201518160080160016101000a81548160ff0219169083151502179055506101408201518160080160026101000a81548160ff0219169083151502179055506101608201518160080160036101000a81548173ffffffffffffffffffffffffffffffffffffffff021916908373ffffffffffffffffffffffffffffffffffffffff160217905550905050600191505b50919050565b600080600460008481526020019081526020016000206040518061018001604052908160008201548152602001600182018054610d9390614e42565b80601f0160208091040260200160405190810160405280929190818152602001828054610dbf90614e42565b8015610e0c5780601f10610de157610100808354040283529160200191610e0c565b820191906000526020600020905b815481529060010190602001808311610def57829003601f168201915b5050505050815260200160028201548152602001600382018054610e2f90614e42565b80601f0160208091040260200160405190810160405280929190818152602001828054610e5b90614e42565b8015610ea85780601f10610e7d57610100808354040283529160200191610ea8565b820191906000526020600020905b815481529060010190602001808311610e8b57829003601f168201915b50505050508152602001600482015481526020016005820154815260200160068201548152602001600782015481526020016008820160009054906101000a900460ff161515151581526020016008820160019054906101000a900460ff161515151581526020016008820160029054906101000a900460ff161515151581526020016008820160039054906101000a900473ffffffffffffffffffffffffffffffffffffffff1673ffffffffffffffffffffffffffffffffffffffff1673ffffffffffffffffffffffffffffffffffffffff168152505090508060a001516103e842610f959190614eea565b1015610fa5576000915050610fab565b60019150505b919050565b610fb86141c2565b60066000838152602001908152602001600020604051806101400160405290816000820154815260200160018201548152602001600282018054610ffb90614e42565b80601f016020809104026020016040519081016040528092919081815260200182805461102790614e42565b80156110745780601f1061104957610100808354040283529160200191611074565b820191906000526020600020905b81548152906001019060200180831161105757829003601f168201915b505050505081526020016003820154815260200160048201805461109790614e42565b80601f01602080910402602001604051908101604052809291908181526020018280546110c390614e42565b80156111105780601f106110e557610100808354040283529160200191611110565b820191906000526020600020905b8154815290600101906020018083116110f357829003601f168201915b5050505050815260200160058201548152602001600682015481526020016007820160009054906101000a900460ff161515151581526020016007820160019054906101000a900460ff161515151581526020016007820160029054906101000a900473ffffffffffffffffffffffffffffffffffffffff1673ffffffffffffffffffffffffffffffffffffffff1673ffffffffffffffffffffffffffffffffffffffff16815250509050919050565b6111c861422f565b60046000838152602001908152602001600020604051806101800160405290816000820154815260200160018201805461120190614e42565b80601f016020809104026020016040519081016040528092919081815260200182805461122d90614e42565b801561127a5780601f1061124f5761010080835404028352916020019161127a565b820191906000526020600020905b81548152906001019060200180831161125d57829003601f168201915b505050505081526020016002820154815260200160038201805461129d90614e42565b80601f01602080910402602001604051908101604052809291908181526020018280546112c990614e42565b80156113165780601f106112eb57610100808354040283529160200191611316565b820191906000526020600020905b8154815290600101906020018083116112f957829003601f168201915b50505050508152602001600482015481526020016005820154815260200160068201548152602001600782015481526020016008820160009054906101000a900460ff161515151581526020016008820160019054906101000a900460ff161515151581526020016008820160029054906101000a900460ff161515151581526020016008820160039054906101000a900473ffffffffffffffffffffffffffffffffffffffff1673ffffffffffffffffffffffffffffffffffffffff1673ffffffffffffffffffffffffffffffffffffffff16815250509050919050565b60006006600085815260200190815260200160002060405180610140016040529081600082015481526020016001820154815260200160028201805461143a90614e42565b80601f016020809104026020016040519081016040528092919081815260200182805461146690614e42565b80156114b35780601f10611488576101008083540402835291602001916114b3565b820191906000526020600020905b81548152906001019060200180831161149657829003601f168201915b50505050508152602001600382015481526020016004820180546114d690614e42565b80601f016020809104026020016040519081016040528092919081815260200182805461150290614e42565b801561154f5780601f106115245761010080835404028352916020019161154f565b820191906000526020600020905b81548152906001019060200180831161153257829003601f168201915b5050505050815260200160058201548152602001600682015481526020016007820160009054906101000a900460ff161515151581526020016007820160019054906101000a900460ff161515151581526020016007820160029054906101000a900473ffffffffffffffffffffffffffffffffffffffff1673ffffffffffffffffffffffffffffffffffffffff1673ffffffffffffffffffffffffffffffffffffffff1681525050905060001515816101000151151514611646576040517f08c379a000000000000000000000000000000000000000000000000000000000815260040161163d90615207565b60405180910390fd5b60001515611653846120bc565b151514611695576040517f08c379a000000000000000000000000000000000000000000000000000000000815260040161168c90615273565b60405180910390fd5b3373ffffffffffffffffffffffffffffffffffffffff16600160009054906101000a900473ffffffffffffffffffffffffffffffffffffffff1673ffffffffffffffffffffffffffffffffffffffff166330501180866040518263ffffffff1660e01b81526004016117079190614964565b602060405180830381865afa158015611724573d6000803e3d6000fd5b505050506040513d601f19601f8201168201806040525081019061174891906152a8565b73ffffffffffffffffffffffffffffffffffffffff161461179e576040517f08c379a000000000000000000000000000000000000000000000000000000000815260040161179590615347565b60405180910390fd5b600160009054906101000a900473ffffffffffffffffffffffffffffffffffffffff1673ffffffffffffffffffffffffffffffffffffffff1663f5537ede3384876040518463ffffffff1660e01b81526004016117fd93929190615367565b600060405180830381600087803b15801561181757600080fd5b505af115801561182b573d6000803e3d6000fd5b5050505050505050565b60008060046000848152602001908152602001600020604051806101800160405290816000820154815260200160018201805461187190614e42565b80601f016020809104026020016040519081016040528092919081815260200182805461189d90614e42565b80156118ea5780601f106118bf576101008083540402835291602001916118ea565b820191906000526020600020905b8154815290600101906020018083116118cd57829003601f168201915b505050505081526020016002820154815260200160038201805461190d90614e42565b80601f016020809104026020016040519081016040528092919081815260200182805461193990614e42565b80156119865780601f1061195b57610100808354040283529160200191611986565b820191906000526020600020905b81548152906001019060200180831161196957829003601f168201915b50505050508152602001600482015481526020016005820154815260200160068201548152602001600782015481526020016008820160009054906101000a900460ff161515151581526020016008820160019054906101000a900460ff161515151581526020016008820160029054906101000a900460ff161515151581526020016008820160039054906101000a900473ffffffffffffffffffffffffffffffffffffffff1673ffffffffffffffffffffffffffffffffffffffff1673ffffffffffffffffffffffffffffffffffffffff168152505090508060c001516103e842611a739190614eea565b1080611a8f57508060e001516103e842611a8d9190614eea565b115b15611d405760008161014001901515908115158152505080600360003373ffffffffffffffffffffffffffffffffffffffff1673ffffffffffffffffffffffffffffffffffffffff1681526020019081526020016000206000858152602001908152602001600020600082015181600001556020820151816001019081611b1691906150d8565b50604082015181600201556060820151816003019081611b3691906150d8565b506080820151816004015560a0820151816005015560c0820151816006015560e082015181600701556101008201518160080160006101000a81548160ff0219169083151502179055506101208201518160080160016101000a81548160ff0219169083151502179055506101408201518160080160026101000a81548160ff0219169083151502179055506101608201518160080160036101000a81548173ffffffffffffffffffffffffffffffffffffffff021916908373ffffffffffffffffffffffffffffffffffffffff1602179055509050508060046000858152602001908152602001600020600082015181600001556020820151816001019081611c4091906150d8565b50604082015181600201556060820151816003019081611c6091906150d8565b506080820151816004015560a0820151816005015560c0820151816006015560e082015181600701556101008201518160080160006101000a81548160ff0219169083151502179055506101208201518160080160016101000a81548160ff0219169083151502179055506101408201518160080160026101000a81548160ff0219169083151502179055506101608201518160080160036101000a81548173ffffffffffffffffffffffffffffffffffffffff021916908373ffffffffffffffffffffffffffffffffffffffff1602179055509050506000915061201e565b8060c001516103e842611d539190614eea565b118015611d7057508060e001516103e842611d6e9190614eea565b105b1561201d5760018161014001901515908115158152505080600360003373ffffffffffffffffffffffffffffffffffffffff1673ffffffffffffffffffffffffffffffffffffffff1681526020019081526020016000206000858152602001908152602001600020600082015181600001556020820151816001019081611df791906150d8565b50604082015181600201556060820151816003019081611e1791906150d8565b506080820151816004015560a0820151816005015560c0820151816006015560e082015181600701556101008201518160080160006101000a81548160ff0219169083151502179055506101208201518160080160016101000a81548160ff0219169083151502179055506101408201518160080160026101000a81548160ff0219169083151502179055506101608201518160080160036101000a81548173ffffffffffffffffffffffffffffffffffffffff021916908373ffffffffffffffffffffffffffffffffffffffff1602179055509050508060046000858152602001908152602001600020600082015181600001556020820151816001019081611f2191906150d8565b50604082015181600201556060820151816003019081611f4191906150d8565b506080820151816004015560a0820151816005015560c0820151816006015560e082015181600701556101008201518160080160006101000a81548160ff0219169083151502179055506101208201518160080160016101000a81548160ff0219169083151502179055506101408201518160080160026101000a81548160ff0219169083151502179055506101608201518160080160036101000a81548173ffffffffffffffffffffffffffffffffffffffff021916908373ffffffffffffffffffffffffffffffffffffffff160217905550905050600191505b5b50919050565b6000600160009054906101000a900473ffffffffffffffffffffffffffffffffffffffff1673ffffffffffffffffffffffffffffffffffffffff166366c512f26040518163ffffffff1660e01b8152600401602060405180830381865afa158015612093573d6000803e3d6000fd5b505050506040513d601f19601f820116820180604052508101906120b791906153b3565b905090565b6000806004600084815260200190815260200160002060405180610180016040529081600082015481526020016001820180546120f890614e42565b80601f016020809104026020016040519081016040528092919081815260200182805461212490614e42565b80156121715780601f1061214657610100808354040283529160200191612171565b820191906000526020600020905b81548152906001019060200180831161215457829003601f168201915b505050505081526020016002820154815260200160038201805461219490614e42565b80601f01602080910402602001604051908101604052809291908181526020018280546121c090614e42565b801561220d5780601f106121e25761010080835404028352916020019161220d565b820191906000526020600020905b8154815290600101906020018083116121f057829003601f168201915b50505050508152602001600482015481526020016005820154815260200160068201548152602001600782015481526020016008820160009054906101000a900460ff161515151581526020016008820160019054906101000a900460ff161515151581526020016008820160029054906101000a900460ff161515151581526020016008820160039054906101000a900473ffffffffffffffffffffffffffffffffffffffff1673ffffffffffffffffffffffffffffffffffffffff1673ffffffffffffffffffffffffffffffffffffffff168152505090508060e001516103e8426122fa9190614eea565b101561230957600091506125b1565b60018161012001901515908115158152505080600360003373ffffffffffffffffffffffffffffffffffffffff1673ffffffffffffffffffffffffffffffffffffffff168152602001908152602001600020600085815260200190815260200160002060008201518160000155602082015181600101908161238b91906150d8565b506040820151816002015560608201518160030190816123ab91906150d8565b506080820151816004015560a0820151816005015560c0820151816006015560e082015181600701556101008201518160080160006101000a81548160ff0219169083151502179055506101208201518160080160016101000a81548160ff0219169083151502179055506101408201518160080160026101000a81548160ff0219169083151502179055506101608201518160080160036101000a81548173ffffffffffffffffffffffffffffffffffffffff021916908373ffffffffffffffffffffffffffffffffffffffff16021790555090505080600460008581526020019081526020016000206000820151816000015560208201518160010190816124b591906150d8565b506040820151816002015560608201518160030190816124d591906150d8565b506080820151816004015560a0820151816005015560c0820151816006015560e082015181600701556101008201518160080160006101000a81548160ff0219169083151502179055506101208201518160080160016101000a81548160ff0219169083151502179055506101408201518160080160026101000a81548160ff0219169083151502179055506101608201518160080160036101000a81548173ffffffffffffffffffffffffffffffffffffffff021916908373ffffffffffffffffffffffffffffffffffffffff160217905550905050600191505b50919050565b6000600860003373ffffffffffffffffffffffffffffffffffffffff1673ffffffffffffffffffffffffffffffffffffffff16815260200190815260200160002060009054906101000a900460ff16905090565b6000600560003373ffffffffffffffffffffffffffffffffffffffff1673ffffffffffffffffffffffffffffffffffffffff16815260200190815260200160002080548060200260200160405190810160405280929190818152602001828054801561269657602002820191906000526020600020905b815481526020019060010190808311612682575b5050505050905060005b81518110156126e65760008282815181106126be576126bd614de4565b5b602002602001015190506126d18161081f565b505080806126de90614ea2565b9150506126a0565b5050565b600015156126f7826120bc565b151514612739576040517f08c379a00000000000000000000000000000000000000000000000000000000081526004016127309061542c565b60405180910390fd5b600060046000838152602001908152602001600020604051806101800160405290816000820154815260200160018201805461277490614e42565b80601f01602080910402602001604051908101604052809291908181526020018280546127a090614e42565b80156127ed5780601f106127c2576101008083540402835291602001916127ed565b820191906000526020600020905b8154815290600101906020018083116127d057829003601f168201915b505050505081526020016002820154815260200160038201805461281090614e42565b80601f016020809104026020016040519081016040528092919081815260200182805461283c90614e42565b80156128895780601f1061285e57610100808354040283529160200191612889565b820191906000526020600020905b81548152906001019060200180831161286c57829003601f168201915b50505050508152602001600482015481526020016005820154815260200160068201548152602001600782015481526020016008820160009054906101000a900460ff161515151581526020016008820160019054906101000a900460ff161515151581526020016008820160029054906101000a900460ff161515151581526020016008820160039054906101000a900473ffffffffffffffffffffffffffffffffffffffff1673ffffffffffffffffffffffffffffffffffffffff1673ffffffffffffffffffffffffffffffffffffffff1681525050905060008160400151905060003a5a61297a9190614eea565b90506000818361298a919061544c565b9050803373ffffffffffffffffffffffffffffffffffffffff163110156129e6576040517f08c379a00000000000000000000000000000000000000000000000000000000081526004016129dd906154cc565b60405180910390fd5b600073ffffffffffffffffffffffffffffffffffffffff163373ffffffffffffffffffffffffffffffffffffffff1603612a55576040517f08c379a0000000000000000000000000000000000000000000000000000000008152600401612a4c90615538565b60405180910390fd5b823414612a97576040517f08c379a0000000000000000000000000000000000000000000000000000000008152600401612a8e906155a4565b60405180910390fd5b34600054612aa5919061544c565b6000819055506000600160009054906101000a900473ffffffffffffffffffffffffffffffffffffffff1673ffffffffffffffffffffffffffffffffffffffff166340d097c3336040518263ffffffff1660e01b8152600401612b0891906145f4565b6020604051808303816000875af1158015612b27573d6000803e3d6000fd5b505050506040513d601f19601f82011682018060405250810190612b4b91906153b3565b90506000604051806101400160405280838152602001888152602001876020015181526020018760400151815260200187606001518152602001876080015181526020018760a0015181526020016000151581526020016000151581526020013373ffffffffffffffffffffffffffffffffffffffff168152509050806006600084815260200190815260200160002060008201518160000155602082015181600101556040820151816002019081612c0491906150d8565b50606082015181600301556080820151816004019081612c2491906150d8565b5060a0820151816005015560c0820151816006015560e08201518160070160006101000a81548160ff0219169083151502179055506101008201518160070160016101000a81548160ff0219169083151502179055506101208201518160070160026101000a81548173ffffffffffffffffffffffffffffffffffffffff021916908373ffffffffffffffffffffffffffffffffffffffff1602179055509050506000600760003373ffffffffffffffffffffffffffffffffffffffff1673ffffffffffffffffffffffffffffffffffffffff1681526020019081526020016000209050808390806001815401808255809150506001900390600052602060002001600090919091909150555050505050505050565b6000600560003373ffffffffffffffffffffffffffffffffffffffff1673ffffffffffffffffffffffffffffffffffffffff168152602001908152602001600020805480602002602001604051908101604052809291908181526020018280548015612dc557602002820191906000526020600020905b815481526020019060010190808311612db1575b5050505050905060005b8151811015612e29576000828281518110612ded57612dec614de4565b5b60200260200101519050612e008161081f565b50612e0a816120bc565b50612e1481611835565b50508080612e2190614ea2565b915050612dcf565b5050565b600060066000858152602001908152602001600020604051806101400160405290816000820154815260200160018201548152602001600282018054612e7290614e42565b80601f0160208091040260200160405190810160405280929190818152602001828054612e9e90614e42565b8015612eeb5780601f10612ec057610100808354040283529160200191612eeb565b820191906000526020600020905b815481529060010190602001808311612ece57829003601f168201915b5050505050815260200160038201548152602001600482018054612f0e90614e42565b80601f0160208091040260200160405190810160405280929190818152602001828054612f3a90614e42565b8015612f875780601f10612f5c57610100808354040283529160200191612f87565b820191906000526020600020905b815481529060010190602001808311612f6a57829003601f168201915b5050505050815260200160058201548152602001600682015481526020016007820160009054906101000a900460ff161515151581526020016007820160019054906101000a900460ff161515151581526020016007820160029054906101000a900473ffffffffffffffffffffffffffffffffffffffff1673ffffffffffffffffffffffffffffffffffffffff1673ffffffffffffffffffffffffffffffffffffffff168152505090506000151581610100015115151461307e576040517f08c379a000000000000000000000000000000000000000000000000000000000815260040161307590615207565b60405180910390fd5b6000151561308b83610d57565b1515146130cd576040517f08c379a00000000000000000000000000000000000000000000000000000000081526004016130c490615273565b60405180910390fd5b6000600260009054906101000a900473ffffffffffffffffffffffffffffffffffffffff1673ffffffffffffffffffffffffffffffffffffffff16636ff2e3f8866040518263ffffffff1660e01b815260040161312a9190614964565b602060405180830381865afa158015613147573d6000803e3d6000fd5b505050506040513d601f19601f8201168201806040525081019061316b91906152a8565b90503373ffffffffffffffffffffffffffffffffffffffff168173ffffffffffffffffffffffffffffffffffffffff16146131db576040517f08c379a00000000000000000000000000000000000000000000000000000000081526004016131d290615610565b60405180910390fd5b8373ffffffffffffffffffffffffffffffffffffffff16600160009054906101000a900473ffffffffffffffffffffffffffffffffffffffff1673ffffffffffffffffffffffffffffffffffffffff166330501180876040518263ffffffff1660e01b815260040161324d9190614964565b602060405180830381865afa15801561326a573d6000803e3d6000fd5b505050506040513d601f19601f8201168201806040525081019061328e91906152a8565b73ffffffffffffffffffffffffffffffffffffffff16146132e4576040517f08c379a00000000000000000000000000000000000000000000000000000000081526004016132db906156a2565b60405180910390fd5b6000600260009054906101000a900473ffffffffffffffffffffffffffffffffffffffff1673ffffffffffffffffffffffffffffffffffffffff16638de1fdd3856040518263ffffffff1660e01b81526004016133419190614964565b602060405180830381865afa15801561335e573d6000803e3d6000fd5b505050506040513d601f19601f8201168201806040525081019061338291906152a8565b905060006004600086815260200190815260200160002060405180610180016040529081600082015481526020016001820180546133bf90614e42565b80601f01602080910402602001604051908101604052809291908181526020018280546133eb90614e42565b80156134385780601f1061340d57610100808354040283529160200191613438565b820191906000526020600020905b81548152906001019060200180831161341b57829003601f168201915b505050505081526020016002820154815260200160038201805461345b90614e42565b80601f016020809104026020016040519081016040528092919081815260200182805461348790614e42565b80156134d45780601f106134a9576101008083540402835291602001916134d4565b820191906000526020600020905b8154815290600101906020018083116134b757829003601f168201915b50505050508152602001600482015481526020016005820154815260200160068201548152602001600782015481526020016008820160009054906101000a900460ff161515151581526020016008820160019054906101000a900460ff161515151581526020016008820160029054906101000a900460ff161515151581526020016008820160039054906101000a900473ffffffffffffffffffffffffffffffffffffffff1673ffffffffffffffffffffffffffffffffffffffff1673ffffffffffffffffffffffffffffffffffffffff1681525050905060008160400151905081600460008881526020019081526020016000206000820151816000015560208201518160010190816135ea91906150d8565b5060408201518160020155606082015181600301908161360a91906150d8565b506080820151816004015560a0820151816005015560c0820151816006015560e082015181600701556101008201518160080160006101000a81548160ff0219169083151502179055506101208201518160080160016101000a81548160ff0219169083151502179055506101408201518160080160026101000a81548160ff0219169083151502179055506101608201518160080160036101000a81548173ffffffffffffffffffffffffffffffffffffffff021916908373ffffffffffffffffffffffffffffffffffffffff1602179055509050508273ffffffffffffffffffffffffffffffffffffffff166108fc829081150290604051600060405180830381858888f19350505050158015613727573d6000803e3d6000fd5b50600160009054906101000a900473ffffffffffffffffffffffffffffffffffffffff1673ffffffffffffffffffffffffffffffffffffffff16637b47ec1a896040518263ffffffff1660e01b81526004016137839190614964565b600060405180830381600087803b15801561379d57600080fd5b505af11580156137b1573d6000803e3d6000fd5b5050505060018561010001901515908115158152505084600660008a81526020019081526020016000206000820151816000015560208201518160010155604082015181600201908161380491906150d8565b5060608201518160030155608082015181600401908161382491906150d8565b5060a0820151816005015560c0820151816006015560e08201518160070160006101000a81548160ff0219169083151502179055506101008201518160070160016101000a81548160ff0219169083151502179055506101208201518160070160026101000a81548173ffffffffffffffffffffffffffffffffffffffff021916908373ffffffffffffffffffffffffffffffffffffffff1602179055509050505050505050505050565b60606000600560003373ffffffffffffffffffffffffffffffffffffffff1673ffffffffffffffffffffffffffffffffffffffff16815260200190815260200160002080548060200260200160405190810160405280929190818152602001828054801561395c57602002820191906000526020600020905b815481526020019060010190808311613948575b505050505090506000815167ffffffffffffffff8111156139805761397f614bcb565b5b6040519080825280602002602001820160405280156139b957816020015b6139a661422f565b81526020019060019003908161399e5790505b50905060005b8251811015613c455760008382815181106139dd576139dc614de4565b5b602002602001015190506000600460008381526020019081526020016000206040518061018001604052908160008201548152602001600182018054613a2290614e42565b80601f0160208091040260200160405190810160405280929190818152602001828054613a4e90614e42565b8015613a9b5780601f10613a7057610100808354040283529160200191613a9b565b820191906000526020600020905b815481529060010190602001808311613a7e57829003601f168201915b5050505050815260200160028201548152602001600382018054613abe90614e42565b80601f0160208091040260200160405190810160405280929190818152602001828054613aea90614e42565b8015613b375780601f10613b0c57610100808354040283529160200191613b37565b820191906000526020600020905b815481529060010190602001808311613b1a57829003601f168201915b50505050508152602001600482015481526020016005820154815260200160068201548152602001600782015481526020016008820160009054906101000a900460ff161515151581526020016008820160019054906101000a900460ff161515151581526020016008820160029054906101000a900460ff161515151581526020016008820160039054906101000a900473ffffffffffffffffffffffffffffffffffffffff1673ffffffffffffffffffffffffffffffffffffffff1673ffffffffffffffffffffffffffffffffffffffff1681525050905080848481518110613c2557613c24614de4565b5b602002602001018190525050508080613c3d90614ea2565b9150506139bf565b50809250505090565b6000600260009054906101000a900473ffffffffffffffffffffffffffffffffffffffff1673ffffffffffffffffffffffffffffffffffffffff1663a8fb35716040518163ffffffff1660e01b8152600401602060405180830381865afa158015613cbd573d6000803e3d6000fd5b505050506040513d601f19601f82011682018060405250810190613ce191906153b3565b905090565b6000600260009054906101000a900473ffffffffffffffffffffffffffffffffffffffff1673ffffffffffffffffffffffffffffffffffffffff1663a82f406b83336040518363ffffffff1660e01b8152600401613d459291906156c2565b6020604051808303816000875af1158015613d64573d6000803e3d6000fd5b505050506040513d601f19601f82011682018060405250810190613d8891906153b3565b905060006040518061018001604052808381526020018b8152602001670de0b6b3a76400008b613db89190614eea565b81526020018981526020018881526020018781526020018681526020018581526020016000151581526020016000151581526020016000151581526020018473ffffffffffffffffffffffffffffffffffffffff16815250905080600360003373ffffffffffffffffffffffffffffffffffffffff1673ffffffffffffffffffffffffffffffffffffffff1681526020019081526020016000206000848152602001908152602001600020600082015181600001556020820151816001019081613e8291906150d8565b50604082015181600201556060820151816003019081613ea291906150d8565b506080820151816004015560a0820151816005015560c0820151816006015560e082015181600701556101008201518160080160006101000a81548160ff0219169083151502179055506101208201518160080160016101000a81548160ff0219169083151502179055506101408201518160080160026101000a81548160ff0219169083151502179055506101608201518160080160036101000a81548173ffffffffffffffffffffffffffffffffffffffff021916908373ffffffffffffffffffffffffffffffffffffffff1602179055509050508060046000848152602001908152602001600020600082015181600001556020820151816001019081613fac91906150d8565b50604082015181600201556060820151816003019081613fcc91906150d8565b506080820151816004015560a0820151816005015560c0820151816006015560e082015181600701556101008201518160080160006101000a81548160ff0219169083151502179055506101208201518160080160016101000a81548160ff0219169083151502179055506101408201518160080160026101000a81548160ff0219169083151502179055506101608201518160080160036101000a81548173ffffffffffffffffffffffffffffffffffffffff021916908373ffffffffffffffffffffffffffffffffffffffff1602179055509050506000600560003373ffffffffffffffffffffffffffffffffffffffff1673ffffffffffffffffffffffffffffffffffffffff16815260200190815260200160002090508083908060018154018082558091505060019003906000526020600020016000909190919091505580600560003373ffffffffffffffffffffffffffffffffffffffff1673ffffffffffffffffffffffffffffffffffffffff16815260200190815260200160002090805461415c9291906142ac565b506001600860003373ffffffffffffffffffffffffffffffffffffffff1673ffffffffffffffffffffffffffffffffffffffff16815260200190815260200160002060006101000a81548160ff0219169083151502179055505050505050505050505050565b60405180610140016040528060008152602001600081526020016060815260200160008152602001606081526020016000815260200160008152602001600015158152602001600015158152602001600073ffffffffffffffffffffffffffffffffffffffff1681525090565b6040518061018001604052806000815260200160608152602001600081526020016060815260200160008152602001600081526020016000815260200160008152602001600015158152602001600015158152602001600015158152602001600073ffffffffffffffffffffffffffffffffffffffff1681525090565b8280548282559060005260206000209081019282156142ed5760005260206000209182015b828111156142ec5782548255916001019190600101906142d1565b5b5090506142fa91906142fe565b5090565b5b808211156143175760008160009055506001016142ff565b5090565b600081519050919050565b600082825260208201905092915050565b6000819050602082019050919050565b6000819050919050565b61435a81614347565b82525050565b600081519050919050565b600082825260208201905092915050565b60005b8381101561439a57808201518184015260208101905061437f565b60008484015250505050565b6000601f19601f8301169050919050565b60006143c282614360565b6143cc818561436b565b93506143dc81856020860161437c565b6143e5816143a6565b840191505092915050565b60008115159050919050565b614405816143f0565b82525050565b600073ffffffffffffffffffffffffffffffffffffffff82169050919050565b60006144368261440b565b9050919050565b6144468161442b565b82525050565b6000610140830160008301516144656000860182614351565b5060208301516144786020860182614351565b506040830151848203604086015261449082826143b7565b91505060608301516144a56060860182614351565b50608083015184820360808601526144bd82826143b7565b91505060a08301516144d260a0860182614351565b5060c08301516144e560c0860182614351565b5060e08301516144f860e08601826143fc565b5061010083015161450d6101008601826143fc565b5061012083015161452261012086018261443d565b508091505092915050565b6000614539838361444c565b905092915050565b6000602082019050919050565b60006145598261431b565b6145638185614326565b93508360208202850161457585614337565b8060005b858110156145b15784840389528151614592858261452d565b945061459d83614541565b925060208a01995050600181019050614579565b50829750879550505050505092915050565b600060208201905081810360008301526145dd818461454e565b905092915050565b6145ee8161442b565b82525050565b600060208201905061460960008301846145e5565b92915050565b6000604051905090565b600080fd5b600080fd5b61462c81614347565b811461463757600080fd5b50565b60008135905061464981614623565b92915050565b60006020828403121561466557614664614619565b5b60006146738482850161463a565b91505092915050565b614685816143f0565b82525050565b60006020820190506146a0600083018461467c565b92915050565b6000610140830160008301516146bf6000860182614351565b5060208301516146d26020860182614351565b50604083015184820360408601526146ea82826143b7565b91505060608301516146ff6060860182614351565b506080830151848203608086015261471782826143b7565b91505060a083015161472c60a0860182614351565b5060c083015161473f60c0860182614351565b5060e083015161475260e08601826143fc565b506101008301516147676101008601826143fc565b5061012083015161477c61012086018261443d565b508091505092915050565b600060208201905081810360008301526147a181846146a6565b905092915050565b6000610180830160008301516147c26000860182614351565b50602083015184820360208601526147da82826143b7565b91505060408301516147ef6040860182614351565b506060830151848203606086015261480782826143b7565b915050608083015161481c6080860182614351565b5060a083015161482f60a0860182614351565b5060c083015161484260c0860182614351565b5060e083015161485560e0860182614351565b5061010083015161486a6101008601826143fc565b5061012083015161487f6101208601826143fc565b506101408301516148946101408601826143fc565b506101608301516148a961016086018261443d565b508091505092915050565b600060208201905081810360008301526148ce81846147a9565b905092915050565b6148df8161442b565b81146148ea57600080fd5b50565b6000813590506148fc816148d6565b92915050565b60008060006060848603121561491b5761491a614619565b5b60006149298682870161463a565b935050602061493a8682870161463a565b925050604061494b868287016148ed565b9150509250925092565b61495e81614347565b82525050565b60006020820190506149796000830184614955565b92915050565b60008060006060848603121561499857614997614619565b5b60006149a68682870161463a565b93505060206149b7868287016148ed565b92505060406149c88682870161463a565b9150509250925092565b600081519050919050565b600082825260208201905092915050565b6000819050602082019050919050565b600061018083016000830151614a176000860182614351565b5060208301518482036020860152614a2f82826143b7565b9150506040830151614a446040860182614351565b5060608301518482036060860152614a5c82826143b7565b9150506080830151614a716080860182614351565b5060a0830151614a8460a0860182614351565b5060c0830151614a9760c0860182614351565b5060e0830151614aaa60e0860182614351565b50610100830151614abf6101008601826143fc565b50610120830151614ad46101208601826143fc565b50610140830151614ae96101408601826143fc565b50610160830151614afe61016086018261443d565b508091505092915050565b6000614b1583836149fe565b905092915050565b6000602082019050919050565b6000614b35826149d2565b614b3f81856149dd565b935083602082028501614b51856149ee565b8060005b85811015614b8d5784840389528151614b6e8582614b09565b9450614b7983614b1d565b925060208a01995050600181019050614b55565b50829750879550505050505092915050565b60006020820190508181036000830152614bb98184614b2a565b905092915050565b600080fd5b600080fd5b7f4e487b7100000000000000000000000000000000000000000000000000000000600052604160045260246000fd5b614c03826143a6565b810181811067ffffffffffffffff82111715614c2257614c21614bcb565b5b80604052505050565b6000614c3561460f565b9050614c418282614bfa565b919050565b600067ffffffffffffffff821115614c6157614c60614bcb565b5b614c6a826143a6565b9050602081019050919050565b82818337600083830152505050565b6000614c99614c9484614c46565b614c2b565b905082815260208101848484011115614cb557614cb4614bc6565b5b614cc0848285614c77565b509392505050565b600082601f830112614cdd57614cdc614bc1565b5b8135614ced848260208601614c86565b91505092915050565b600080600080600080600080610100898b031215614d1757614d16614619565b5b600089013567ffffffffffffffff811115614d3557614d3461461e565b5b614d418b828c01614cc8565b9850506020614d528b828c0161463a565b975050604089013567ffffffffffffffff811115614d7357614d7261461e565b5b614d7f8b828c01614cc8565b9650506060614d908b828c0161463a565b9550506080614da18b828c0161463a565b94505060a0614db28b828c0161463a565b93505060c0614dc38b828c0161463a565b92505060e0614dd48b828c016148ed565b9150509295985092959890939650565b7f4e487b7100000000000000000000000000000000000000000000000000000000600052603260045260246000fd5b7f4e487b7100000000000000000000000000000000000000000000000000000000600052602260045260246000fd5b60006002820490506001821680614e5a57607f821691505b602082108103614e6d57614e6c614e13565b5b50919050565b7f4e487b7100000000000000000000000000000000000000000000000000000000600052601160045260246000fd5b6000614ead82614347565b91507fffffffffffffffffffffffffffffffffffffffffffffffffffffffffffffffff8203614edf57614ede614e73565b5b600182019050919050565b6000614ef582614347565b9150614f0083614347565b9250828202614f0e81614347565b91508282048414831517614f2557614f24614e73565b5b5092915050565b60008190508160005260206000209050919050565b60006020601f8301049050919050565b600082821b905092915050565b600060088302614f8e7fffffffffffffffffffffffffffffffffffffffffffffffffffffffffffffffff82614f51565b614f988683614f51565b95508019841693508086168417925050509392505050565b6000819050919050565b6000614fd5614fd0614fcb84614347565b614fb0565b614347565b9050919050565b6000819050919050565b614fef83614fba565b615003614ffb82614fdc565b848454614f5e565b825550505050565b600090565b61501861500b565b615023818484614fe6565b505050565b5b818110156150475761503c600082615010565b600181019050615029565b5050565b601f82111561508c5761505d81614f2c565b61506684614f41565b81016020851015615075578190505b61508961508185614f41565b830182615028565b50505b505050565b600082821c905092915050565b60006150af60001984600802615091565b1980831691505092915050565b60006150c8838361509e565b9150826002028217905092915050565b6150e182614360565b67ffffffffffffffff8111156150fa576150f9614bcb565b5b6151048254614e42565b61510f82828561504b565b600060209050601f8311600181146151425760008415615130578287015190505b61513a85826150bc565b8655506151a2565b601f19841661515086614f2c565b60005b8281101561517857848901518255600182019150602085019450602081019050615153565b868310156151955784890151615191601f89168261509e565b8355505b6001600288020188555050505b505050505050565b600082825260208201905092915050565b7f7469636b6574206275726e656420616c72656164790000000000000000000000600082015250565b60006151f16015836151aa565b91506151fc826151bb565b602082019050919050565b60006020820190508181036000830152615220816151e4565b9050919050565b7f6576656e74206973206578706972656400000000000000000000000000000000600082015250565b600061525d6010836151aa565b915061526882615227565b602082019050919050565b6000602082019050818103600083015261528c81615250565b9050919050565b6000815190506152a2816148d6565b92915050565b6000602082840312156152be576152bd614619565b5b60006152cc84828501615293565b91505092915050565b7f496e76616c69642061646472657373206f7220746f6b656e20646f65736e6f7460008201527f2065786973740000000000000000000000000000000000000000000000000000602082015250565b60006153316026836151aa565b915061533c826152d5565b604082019050919050565b6000602082019050818103600083015261536081615324565b9050919050565b600060608201905061537c60008301866145e5565b61538960208301856145e5565b6153966040830184614955565b949350505050565b6000815190506153ad81614623565b92915050565b6000602082840312156153c9576153c8614619565b5b60006153d78482850161539e565b91505092915050565b7f73616c6520697320657870697265640000000000000000000000000000000000600082015250565b6000615416600f836151aa565b9150615421826153e0565b602082019050919050565b6000602082019050818103600083015261544581615409565b9050919050565b600061545782614347565b915061546283614347565b925082820190508082111561547a57615479614e73565b5b92915050565b7f696e737566666963656e742062616c616e636500000000000000000000000000600082015250565b60006154b66013836151aa565b91506154c182615480565b602082019050919050565b600060208201905081810360008301526154e5816154a9565b9050919050565b7f696e76616c696420616464726573730000000000000000000000000000000000600082015250565b6000615522600f836151aa565b915061552d826154ec565b602082019050919050565b6000602082019050818103600083015261555181615515565b9050919050565b7f696e76616c696420616d6f756e74000000000000000000000000000000000000600082015250565b600061558e600e836151aa565b915061559982615558565b602082019050919050565b600060208201905081810360008301526155bd81615581565b9050919050565b7f556e617574686f72697a656420746f6b656e206275726e657200000000000000600082015250565b60006155fa6019836151aa565b9150615605826155c4565b602082019050919050565b60006020820190508181036000830152615629816155ed565b9050919050565b7f496e76616c69642061646472657373206f7220746f6b656e20696420646f657360008201527f6e6f742065786973740000000000000000000000000000000000000000000000602082015250565b600061568c6029836151aa565b915061569782615630565b604082019050919050565b600060208201905081810360008301526156bb8161567f565b9050919050565b60006040820190506156d760008301856145e5565b6156e460208301846145e5565b939250505056fea26469706673582212201c957d12195f2cb9112ba6366087f40c50482ea57952216b3007ec9e78c1dede64736f6c63430008140033",
  "linkReferences": {},
  "deployedLinkReferences": {}
}