{
  "_format": "hh-sol-artifact-1",
  "contractName": "EventNFT",
  "sourceName": "contracts/EventNFT.sol",
  "abi": [
    {
      "inputs": [],
      "stateMutability": "nonpayable",
      "type": "constructor"
    },
    {
      "inputs": [],
      "name": "AccessControlBadConfirmation",
      "type": "error"
    },
    {
      "inputs": [
        {
          "internalType": "address",
          "name": "account",
          "type": "address"
        },
        {
          "internalType": "bytes32",
          "name": "neededRole",
          "type": "bytes32"
        }
      ],
      "name": "AccessControlUnauthorizedAccount",
      "type": "error"
    },
    {
      "inputs": [
        {
          "internalType": "address",
          "name": "sender",
          "type": "address"
        },
        {
          "internalType": "uint256",
          "name": "tokenId",
          "type": "uint256"
        },
        {
          "internalType": "address",
          "name": "owner",
          "type": "address"
        }
      ],
      "name": "ERC721IncorrectOwner",
      "type": "error"
    },
    {
      "inputs": [
        {
          "internalType": "address",
          "name": "operator",
          "type": "address"
        },
        {
          "internalType": "uint256",
          "name": "tokenId",
          "type": "uint256"
        }
      ],
      "name": "ERC721InsufficientApproval",
      "type": "error"
    },
    {
      "inputs": [
        {
          "internalType": "address",
          "name": "approver",
          "type": "address"
        }
      ],
      "name": "ERC721InvalidApprover",
      "type": "error"
    },
    {
      "inputs": [
        {
          "internalType": "address",
          "name": "operator",
          "type": "address"
        }
      ],
      "name": "ERC721InvalidOperator",
      "type": "error"
    },
    {
      "inputs": [
        {
          "internalType": "address",
          "name": "owner",
          "type": "address"
        }
      ],
      "name": "ERC721InvalidOwner",
      "type": "error"
    },
    {
      "inputs": [
        {
          "internalType": "address",
          "name": "receiver",
          "type": "address"
        }
      ],
      "name": "ERC721InvalidReceiver",
      "type": "error"
    },
    {
      "inputs": [
        {
          "internalType": "address",
          "name": "sender",
          "type": "address"
        }
      ],
      "name": "ERC721InvalidSender",
      "type": "error"
    },
    {
      "inputs": [
        {
          "internalType": "uint256",
          "name": "tokenId",
          "type": "uint256"
        }
      ],
      "name": "ERC721NonexistentToken",
      "type": "error"
    },
    {
      "anonymous": false,
      "inputs": [
        {
          "indexed": true,
          "internalType": "address",
          "name": "owner",
          "type": "address"
        },
        {
          "indexed": true,
          "internalType": "address",
          "name": "approved",
          "type": "address"
        },
        {
          "indexed": true,
          "internalType": "uint256",
          "name": "tokenId",
          "type": "uint256"
        }
      ],
      "name": "Approval",
      "type": "event"
    },
    {
      "anonymous": false,
      "inputs": [
        {
          "indexed": true,
          "internalType": "address",
          "name": "owner",
          "type": "address"
        },
        {
          "indexed": true,
          "internalType": "address",
          "name": "operator",
          "type": "address"
        },
        {
          "indexed": false,
          "internalType": "bool",
          "name": "approved",
          "type": "bool"
        }
      ],
      "name": "ApprovalForAll",
      "type": "event"
    },
    {
      "anonymous": false,
      "inputs": [
        {
          "indexed": true,
          "internalType": "bytes32",
          "name": "role",
          "type": "bytes32"
        },
        {
          "indexed": true,
          "internalType": "bytes32",
          "name": "previousAdminRole",
          "type": "bytes32"
        },
        {
          "indexed": true,
          "internalType": "bytes32",
          "name": "newAdminRole",
          "type": "bytes32"
        }
      ],
      "name": "RoleAdminChanged",
      "type": "event"
    },
    {
      "anonymous": false,
      "inputs": [
        {
          "indexed": true,
          "internalType": "bytes32",
          "name": "role",
          "type": "bytes32"
        },
        {
          "indexed": true,
          "internalType": "address",
          "name": "account",
          "type": "address"
        },
        {
          "indexed": true,
          "internalType": "address",
          "name": "sender",
          "type": "address"
        }
      ],
      "name": "RoleGranted",
      "type": "event"
    },
    {
      "anonymous": false,
      "inputs": [
        {
          "indexed": true,
          "internalType": "bytes32",
          "name": "role",
          "type": "bytes32"
        },
        {
          "indexed": true,
          "internalType": "address",
          "name": "account",
          "type": "address"
        },
        {
          "indexed": true,
          "internalType": "address",
          "name": "sender",
          "type": "address"
        }
      ],
      "name": "RoleRevoked",
      "type": "event"
    },
    {
      "anonymous": false,
      "inputs": [
        {
          "indexed": true,
          "internalType": "address",
          "name": "from",
          "type": "address"
        },
        {
          "indexed": true,
          "internalType": "address",
          "name": "to",
          "type": "address"
        },
        {
          "indexed": true,
          "internalType": "uint256",
          "name": "tokenId",
          "type": "uint256"
        }
      ],
      "name": "Transfer",
      "type": "event"
    },
    {
      "inputs": [],
      "name": "DEFAULT_ADMIN_ROLE",
      "outputs": [
        {
          "internalType": "bytes32",
          "name": "",
          "type": "bytes32"
        }
      ],
      "stateMutability": "view",
      "type": "function"
    },
    {
      "inputs": [
        {
          "internalType": "address",
          "name": "to",
          "type": "address"
        },
        {
          "internalType": "uint256",
          "name": "tokenId",
          "type": "uint256"
        }
      ],
      "name": "approve",
      "outputs": [],
      "stateMutability": "nonpayable",
      "type": "function"
    },
    {
      "inputs": [
        {
          "internalType": "address",
          "name": "owner",
          "type": "address"
        }
      ],
      "name": "balanceOf",
      "outputs": [
        {
          "internalType": "uint256",
          "name": "",
          "type": "uint256"
        }
      ],
      "stateMutability": "view",
      "type": "function"
    },
    {
      "inputs": [
        {
          "internalType": "uint256",
          "name": "tokenId",
          "type": "uint256"
        },
        {
          "internalType": "address",
          "name": "_newTokenBurnerAddress",
          "type": "address"
        }
      ],
      "name": "changeTokenBurnerAddress",
      "outputs": [],
      "stateMutability": "nonpayable",
      "type": "function"
    },
    {
      "inputs": [
        {
          "internalType": "uint256",
          "name": "tokenId",
          "type": "uint256"
        }
      ],
      "name": "checkOwnerOfEvent",
      "outputs": [
        {
          "internalType": "address",
          "name": "tokenOwnerAddress",
          "type": "address"
        }
      ],
      "stateMutability": "view",
      "type": "function"
    },
    {
      "inputs": [
        {
          "internalType": "uint256",
          "name": "tokenId",
          "type": "uint256"
        }
      ],
      "name": "checkTokenBurnerAddress",
      "outputs": [
        {
          "internalType": "address",
          "name": "_tokenBurnerAddress",
          "type": "address"
        }
      ],
      "stateMutability": "view",
      "type": "function"
    },
    {
      "inputs": [
        {
          "internalType": "uint256",
          "name": "tokenId",
          "type": "uint256"
        }
      ],
      "name": "getApproved",
      "outputs": [
        {
          "internalType": "address",
          "name": "",
          "type": "address"
        }
      ],
      "stateMutability": "view",
      "type": "function"
    },
    {
      "inputs": [
        {
          "internalType": "bytes32",
          "name": "role",
          "type": "bytes32"
        }
      ],
      "name": "getRoleAdmin",
      "outputs": [
        {
          "internalType": "bytes32",
          "name": "",
          "type": "bytes32"
        }
      ],
      "stateMutability": "view",
      "type": "function"
    },
    {
      "inputs": [
        {
          "internalType": "bytes32",
          "name": "role",
          "type": "bytes32"
        },
        {
          "internalType": "address",
          "name": "account",
          "type": "address"
        }
      ],
      "name": "grantRole",
      "outputs": [],
      "stateMutability": "nonpayable",
      "type": "function"
    },
    {
      "inputs": [
        {
          "internalType": "bytes32",
          "name": "role",
          "type": "bytes32"
        },
        {
          "internalType": "address",
          "name": "account",
          "type": "address"
        }
      ],
      "name": "hasRole",
      "outputs": [
        {
          "internalType": "bool",
          "name": "",
          "type": "bool"
        }
      ],
      "stateMutability": "view",
      "type": "function"
    },
    {
      "inputs": [
        {
          "internalType": "address",
          "name": "owner",
          "type": "address"
        },
        {
          "internalType": "address",
          "name": "operator",
          "type": "address"
        }
      ],
      "name": "isApprovedForAll",
      "outputs": [
        {
          "internalType": "bool",
          "name": "",
          "type": "bool"
        }
      ],
      "stateMutability": "view",
      "type": "function"
    },
    {
      "inputs": [
        {
          "internalType": "address",
          "name": "_tokenBurnerAddress",
          "type": "address"
        },
        {
          "internalType": "address",
          "name": "_to",
          "type": "address"
        }
      ],
      "name": "mintEventNFT",
      "outputs": [
        {
          "internalType": "uint256",
          "name": "_eventId",
          "type": "uint256"
        }
      ],
      "stateMutability": "nonpayable",
      "type": "function"
    },
    {
      "inputs": [],
      "name": "name",
      "outputs": [
        {
          "internalType": "string",
          "name": "tokenName",
          "type": "string"
        }
      ],
      "stateMutability": "view",
      "type": "function"
    },
    {
      "inputs": [
        {
          "internalType": "uint256",
          "name": "tokenId",
          "type": "uint256"
        }
      ],
      "name": "ownerOf",
      "outputs": [
        {
          "internalType": "address",
          "name": "",
          "type": "address"
        }
      ],
      "stateMutability": "view",
      "type": "function"
    },
    {
      "inputs": [
        {
          "internalType": "bytes32",
          "name": "role",
          "type": "bytes32"
        },
        {
          "internalType": "address",
          "name": "callerConfirmation",
          "type": "address"
        }
      ],
      "name": "renounceRole",
      "outputs": [],
      "stateMutability": "nonpayable",
      "type": "function"
    },
    {
      "inputs": [
        {
          "internalType": "bytes32",
          "name": "role",
          "type": "bytes32"
        },
        {
          "internalType": "address",
          "name": "account",
          "type": "address"
        }
      ],
      "name": "revokeRole",
      "outputs": [],
      "stateMutability": "nonpayable",
      "type": "function"
    },
    {
      "inputs": [
        {
          "internalType": "address",
          "name": "from",
          "type": "address"
        },
        {
          "internalType": "address",
          "name": "to",
          "type": "address"
        },
        {
          "internalType": "uint256",
          "name": "tokenId",
          "type": "uint256"
        }
      ],
      "name": "safeTransferFrom",
      "outputs": [],
      "stateMutability": "nonpayable",
      "type": "function"
    },
    {
      "inputs": [
        {
          "internalType": "address",
          "name": "from",
          "type": "address"
        },
        {
          "internalType": "address",
          "name": "to",
          "type": "address"
        },
        {
          "internalType": "uint256",
          "name": "tokenId",
          "type": "uint256"
        },
        {
          "internalType": "bytes",
          "name": "data",
          "type": "bytes"
        }
      ],
      "name": "safeTransferFrom",
      "outputs": [],
      "stateMutability": "nonpayable",
      "type": "function"
    },
    {
      "inputs": [
        {
          "internalType": "address",
          "name": "operator",
          "type": "address"
        },
        {
          "internalType": "bool",
          "name": "approved",
          "type": "bool"
        }
      ],
      "name": "setApprovalForAll",
      "outputs": [],
      "stateMutability": "nonpayable",
      "type": "function"
    },
    {
      "inputs": [
        {
          "internalType": "bytes4",
          "name": "interfaceId",
          "type": "bytes4"
        }
      ],
      "name": "supportsInterface",
      "outputs": [
        {
          "internalType": "bool",
          "name": "",
          "type": "bool"
        }
      ],
      "stateMutability": "view",
      "type": "function"
    },
    {
      "inputs": [],
      "name": "symbol",
      "outputs": [
        {
          "internalType": "string",
          "name": "symbolName",
          "type": "string"
        }
      ],
      "stateMutability": "view",
      "type": "function"
    },
    {
      "inputs": [
        {
          "internalType": "uint256",
          "name": "tokenId",
          "type": "uint256"
        }
      ],
      "name": "tokenURI",
      "outputs": [
        {
          "internalType": "string",
          "name": "",
          "type": "string"
        }
      ],
      "stateMutability": "view",
      "type": "function"
    },
    {
      "inputs": [],
      "name": "totalEventsRegistered",
      "outputs": [
        {
          "internalType": "uint256",
          "name": "_totalEvents",
          "type": "uint256"
        }
      ],
      "stateMutability": "view",
      "type": "function"
    },
    {
      "inputs": [
        {
          "internalType": "address",
          "name": "from",
          "type": "address"
        },
        {
          "internalType": "address",
          "name": "to",
          "type": "address"
        },
        {
          "internalType": "uint256",
          "name": "tokenId",
          "type": "uint256"
        }
      ],
      "name": "transferEventOwnerShip",
      "outputs": [],
      "stateMutability": "nonpayable",
      "type": "function"
    },
    {
      "inputs": [
        {
          "internalType": "address",
          "name": "from",
          "type": "address"
        },
        {
          "internalType": "address",
          "name": "to",
          "type": "address"
        },
        {
          "internalType": "uint256",
          "name": "tokenId",
          "type": "uint256"
        }
      ],
      "name": "transferFrom",
      "outputs": [],
      "stateMutability": "nonpayable",
      "type": "function"
    }
  ],
  "bytecode": "0x60806040523480156200001157600080fd5b506040518060400160405280600e81526020017f544f4b454e495a454556454e545a0000000000000000000000000000000000008152506040518060400160405280600581526020017f54454e465400000000000000000000000000000000000000000000000000000081525081600090816200008f919062000324565b508060019081620000a1919062000324565b5050506200040b565b600081519050919050565b7f4e487b7100000000000000000000000000000000000000000000000000000000600052604160045260246000fd5b7f4e487b7100000000000000000000000000000000000000000000000000000000600052602260045260246000fd5b600060028204905060018216806200012c57607f821691505b602082108103620001425762000141620000e4565b5b50919050565b60008190508160005260206000209050919050565b60006020601f8301049050919050565b600082821b905092915050565b600060088302620001ac7fffffffffffffffffffffffffffffffffffffffffffffffffffffffffffffffff826200016d565b620001b886836200016d565b95508019841693508086168417925050509392505050565b6000819050919050565b6000819050919050565b600062000205620001ff620001f984620001d0565b620001da565b620001d0565b9050919050565b6000819050919050565b6200022183620001e4565b6200023962000230826200020c565b8484546200017a565b825550505050565b600090565b6200025062000241565b6200025d81848462000216565b505050565b5b8181101562000285576200027960008262000246565b60018101905062000263565b5050565b601f821115620002d4576200029e8162000148565b620002a9846200015d565b81016020851015620002b9578190505b620002d1620002c8856200015d565b83018262000262565b50505b505050565b600082821c905092915050565b6000620002f960001984600802620002d9565b1980831691505092915050565b6000620003148383620002e6565b9150826002028217905092915050565b6200032f82620000aa565b67ffffffffffffffff8111156200034b576200034a620000b5565b5b62000357825462000113565b6200036482828562000289565b600060209050601f8311600181146200039c576000841562000387578287015190505b62000393858262000306565b86555062000403565b601f198416620003ac8662000148565b60005b82811015620003d657848901518255600182019150602085019450602081019050620003af565b86831015620003f65784890151620003f2601f891682620002e6565b8355505b6001600288020188555050505b505050505050565b612973806200041b6000396000f3fe608060405234801561001057600080fd5b50600436106101735760003560e01c80638de1fdd3116100de578063a8fb357111610097578063d547741f11610071578063d547741f14610494578063d87bfbbd146104b0578063e4b2950d146104cc578063e985e9c5146104e857610173565b8063a8fb35711461042a578063b88d4fde14610448578063c87b56dd1461046457610173565b80638de1fdd31461034257806391d148541461037257806395d89b41146103a2578063a217fddf146103c0578063a22cb465146103de578063a82f406b146103fa57610173565b80632f2ff15d116101305780632f2ff15d1461025e57806336568abe1461027a57806342842e0e146102965780636352211e146102b25780636ff2e3f8146102e257806370a082311461031257610173565b806301ffc9a71461017857806306fdde03146101a8578063081812fc146101c6578063095ea7b3146101f657806323b872dd14610212578063248a9ca31461022e575b600080fd5b610192600480360381019061018d9190612004565b610518565b60405161019f919061204c565b60405180910390f35b6101b061052a565b6040516101bd91906120f7565b60405180910390f35b6101e060048036038101906101db919061214f565b610539565b6040516101ed91906121bd565b60405180910390f35b610210600480360381019061020b9190612204565b610555565b005b61022c60048036038101906102279190612244565b61056b565b005b610248600480360381019061024391906122cd565b61066d565b6040516102559190612309565b60405180910390f35b61027860048036038101906102739190612324565b61068d565b005b610294600480360381019061028f9190612324565b6106af565b005b6102b060048036038101906102ab9190612244565b61072a565b005b6102cc60048036038101906102c7919061214f565b61074a565b6040516102d991906121bd565b60405180910390f35b6102fc60048036038101906102f7919061214f565b61075c565b60405161030991906121bd565b60405180910390f35b61032c60048036038101906103279190612364565b6107d6565b60405161033991906123a0565b60405180910390f35b61035c6004803603810190610357919061214f565b610890565b60405161036991906121bd565b60405180910390f35b61038c60048036038101906103879190612324565b6108a2565b604051610399919061204c565b60405180910390f35b6103aa61090d565b6040516103b791906120f7565b60405180910390f35b6103c861091c565b6040516103d59190612309565b60405180910390f35b6103f860048036038101906103f391906123e7565b610923565b005b610414600480360381019061040f9190612427565b610939565b60405161042191906123a0565b60405180910390f35b6104326109f8565b60405161043f91906123a0565b60405180910390f35b610462600480360381019061045d919061259c565b610a02565b005b61047e6004803603810190610479919061214f565b610a1f565b60405161048b91906120f7565b60405180910390f35b6104ae60048036038101906104a99190612324565b610a88565b005b6104ca60048036038101906104c5919061261f565b610aaa565b005b6104e660048036038101906104e19190612244565b610bb3565b005b61050260048036038101906104fd9190612427565b610c39565b60405161050f919061204c565b60405180910390f35b600061052382610ccd565b9050919050565b606061053461052a565b905090565b600061054482610d47565b5061054e82610dcf565b9050919050565b6105678282610562610e0c565b610e14565b5050565b600073ffffffffffffffffffffffffffffffffffffffff168273ffffffffffffffffffffffffffffffffffffffff16036105dd5760006040517f64a0ae920000000000000000000000000000000000000000000000000000000081526004016105d491906121bd565b60405180910390fd5b60006105f183836105ec610e0c565b610e26565b90508373ffffffffffffffffffffffffffffffffffffffff168173ffffffffffffffffffffffffffffffffffffffff1614610667578382826040517f64283d7b00000000000000000000000000000000000000000000000000000000815260040161065e9392919061265f565b60405180910390fd5b50505050565b600060066000838152602001908152602001600020600101549050919050565b6106968261066d565b61069f81611040565b6106a98383611054565b50505050565b6106b7610e0c565b73ffffffffffffffffffffffffffffffffffffffff168173ffffffffffffffffffffffffffffffffffffffff161461071b576040517f6697b23200000000000000000000000000000000000000000000000000000000815260040160405180910390fd5b6107258282611146565b505050565b61074583838360405180602001604052806000815250610a02565b505050565b600061075582610d47565b9050919050565b60006008600083815260200190815260200160002060003373ffffffffffffffffffffffffffffffffffffffff1673ffffffffffffffffffffffffffffffffffffffff16815260200190815260200160002060009054906101000a900473ffffffffffffffffffffffffffffffffffffffff169050919050565b60008073ffffffffffffffffffffffffffffffffffffffff168273ffffffffffffffffffffffffffffffffffffffff16036108495760006040517f89c62b6400000000000000000000000000000000000000000000000000000000815260040161084091906121bd565b60405180910390fd5b600360008373ffffffffffffffffffffffffffffffffffffffff1673ffffffffffffffffffffffffffffffffffffffff168152602001908152602001600020549050919050565b600061089b82610d47565b9050919050565b60006006600084815260200190815260200160002060000160008373ffffffffffffffffffffffffffffffffffffffff1673ffffffffffffffffffffffffffffffffffffffff16815260200190815260200160002060009054906101000a900460ff16905092915050565b606061091761090d565b905090565b6000801b81565b61093561092e610e0c565b8383611239565b5050565b6000806007600081548092919061094f906126c5565b91905055905061095f83826113a8565b836008600083815260200190815260200160002060003373ffffffffffffffffffffffffffffffffffffffff1673ffffffffffffffffffffffffffffffffffffffff16815260200190815260200160002060006101000a81548173ffffffffffffffffffffffffffffffffffffffff021916908373ffffffffffffffffffffffffffffffffffffffff1602179055508091505092915050565b6000600754905090565b610a0d84848461056b565b610a19848484846113c6565b50505050565b6060610a2a82610d47565b506000610a3561157d565b90506000815111610a555760405180602001604052806000815250610a80565b80610a5f84611594565b604051602001610a70929190612749565b6040516020818303038152906040525b915050919050565b610a918261066d565b610a9a81611040565b610aa48383611146565b50505050565b3373ffffffffffffffffffffffffffffffffffffffff16610aca83610890565b73ffffffffffffffffffffffffffffffffffffffff1614610b20576040517f08c379a0000000000000000000000000000000000000000000000000000000008152600401610b17906127b9565b60405180910390fd5b806008600084815260200190815260200160002060003373ffffffffffffffffffffffffffffffffffffffff1673ffffffffffffffffffffffffffffffffffffffff16815260200190815260200160002060006101000a81548173ffffffffffffffffffffffffffffffffffffffff021916908373ffffffffffffffffffffffffffffffffffffffff1602179055505050565b3373ffffffffffffffffffffffffffffffffffffffff16610bd382610890565b73ffffffffffffffffffffffffffffffffffffffff1614610c29576040517f08c379a0000000000000000000000000000000000000000000000000000000008152600401610c20906127b9565b60405180910390fd5b610c34838383611662565b505050565b6000600560008473ffffffffffffffffffffffffffffffffffffffff1673ffffffffffffffffffffffffffffffffffffffff16815260200190815260200160002060008373ffffffffffffffffffffffffffffffffffffffff1673ffffffffffffffffffffffffffffffffffffffff16815260200190815260200160002060009054906101000a900460ff16905092915050565b60007f7965db0b000000000000000000000000000000000000000000000000000000007bffffffffffffffffffffffffffffffffffffffffffffffffffffffff1916827bffffffffffffffffffffffffffffffffffffffffffffffffffffffff19161480610d405750610d3f82611682565b5b9050919050565b600080610d5383611764565b9050600073ffffffffffffffffffffffffffffffffffffffff168173ffffffffffffffffffffffffffffffffffffffff1603610dc657826040517f7e273289000000000000000000000000000000000000000000000000000000008152600401610dbd91906123a0565b60405180910390fd5b80915050919050565b60006004600083815260200190815260200160002060009054906101000a900473ffffffffffffffffffffffffffffffffffffffff169050919050565b600033905090565b610e2183838360016117a1565b505050565b600080610e3284611764565b9050600073ffffffffffffffffffffffffffffffffffffffff168373ffffffffffffffffffffffffffffffffffffffff1614610e7457610e73818486611966565b5b600073ffffffffffffffffffffffffffffffffffffffff168173ffffffffffffffffffffffffffffffffffffffff1614610f0557610eb66000856000806117a1565b6001600360008373ffffffffffffffffffffffffffffffffffffffff1673ffffffffffffffffffffffffffffffffffffffff168152602001908152602001600020600082825403925050819055505b600073ffffffffffffffffffffffffffffffffffffffff168573ffffffffffffffffffffffffffffffffffffffff1614610f88576001600360008773ffffffffffffffffffffffffffffffffffffffff1673ffffffffffffffffffffffffffffffffffffffff168152602001908152602001600020600082825401925050819055505b846002600086815260200190815260200160002060006101000a81548173ffffffffffffffffffffffffffffffffffffffff021916908373ffffffffffffffffffffffffffffffffffffffff160217905550838573ffffffffffffffffffffffffffffffffffffffff168273ffffffffffffffffffffffffffffffffffffffff167fddf252ad1be2c89b69c2b068fc378daa952ba7f163c4a11628f55a4df523b3ef60405160405180910390a4809150509392505050565b6110518161104c610e0c565b611a2a565b50565b600061106083836108a2565b61113b5760016006600085815260200190815260200160002060000160008473ffffffffffffffffffffffffffffffffffffffff1673ffffffffffffffffffffffffffffffffffffffff16815260200190815260200160002060006101000a81548160ff0219169083151502179055506110d8610e0c565b73ffffffffffffffffffffffffffffffffffffffff168273ffffffffffffffffffffffffffffffffffffffff16847f2f8788117e7eff1d82e926ec794901d17c78024a50270940304540a733656f0d60405160405180910390a460019050611140565b600090505b92915050565b600061115283836108a2565b1561122e5760006006600085815260200190815260200160002060000160008473ffffffffffffffffffffffffffffffffffffffff1673ffffffffffffffffffffffffffffffffffffffff16815260200190815260200160002060006101000a81548160ff0219169083151502179055506111cb610e0c565b73ffffffffffffffffffffffffffffffffffffffff168273ffffffffffffffffffffffffffffffffffffffff16847ff6391f5c32d9c69d2a47ea670b442974b53935d1edc7fd64eb21e047a839171b60405160405180910390a460019050611233565b600090505b92915050565b600073ffffffffffffffffffffffffffffffffffffffff168273ffffffffffffffffffffffffffffffffffffffff16036112aa57816040517f5b08ba180000000000000000000000000000000000000000000000000000000081526004016112a191906121bd565b60405180910390fd5b80600560008573ffffffffffffffffffffffffffffffffffffffff1673ffffffffffffffffffffffffffffffffffffffff16815260200190815260200160002060008473ffffffffffffffffffffffffffffffffffffffff1673ffffffffffffffffffffffffffffffffffffffff16815260200190815260200160002060006101000a81548160ff0219169083151502179055508173ffffffffffffffffffffffffffffffffffffffff168373ffffffffffffffffffffffffffffffffffffffff167f17307eab39ab6107e8899845ad3d59bd9653f200f220920489ca2b5937696c318360405161139b919061204c565b60405180910390a3505050565b6113c2828260405180602001604052806000815250611a7b565b5050565b60008373ffffffffffffffffffffffffffffffffffffffff163b1115611577578273ffffffffffffffffffffffffffffffffffffffff1663150b7a0261140a610e0c565b8685856040518563ffffffff1660e01b815260040161142c949392919061282e565b6020604051808303816000875af192505050801561146857506040513d601f19601f82011682018060405250810190611465919061288f565b60015b6114ec573d8060008114611498576040519150601f19603f3d011682016040523d82523d6000602084013e61149d565b606091505b5060008151036114e457836040517f64a0ae920000000000000000000000000000000000000000000000000000000081526004016114db91906121bd565b60405180910390fd5b805181602001fd5b63150b7a0260e01b7bffffffffffffffffffffffffffffffffffffffffffffffffffffffff1916817bffffffffffffffffffffffffffffffffffffffffffffffffffffffff19161461157557836040517f64a0ae9200000000000000000000000000000000000000000000000000000000815260040161156c91906121bd565b60405180910390fd5b505b50505050565b606060405180602001604052806000815250905090565b6060600060016115a384611a97565b01905060008167ffffffffffffffff8111156115c2576115c1612471565b5b6040519080825280601f01601f1916602001820160405280156115f45781602001600182028036833780820191505090505b509050600082602001820190505b600115611657578080600190039150507f3031323334353637383961626364656600000000000000000000000000000000600a86061a8153600a858161164b5761164a6128bc565b5b04945060008503611602575b819350505050919050565b61167d83838360405180602001604052806000815250611bea565b505050565b60007f80ac58cd000000000000000000000000000000000000000000000000000000007bffffffffffffffffffffffffffffffffffffffffffffffffffffffff1916827bffffffffffffffffffffffffffffffffffffffffffffffffffffffff1916148061174d57507f5b5e139f000000000000000000000000000000000000000000000000000000007bffffffffffffffffffffffffffffffffffffffffffffffffffffffff1916827bffffffffffffffffffffffffffffffffffffffffffffffffffffffff1916145b8061175d575061175c82611c07565b5b9050919050565b60006002600083815260200190815260200160002060009054906101000a900473ffffffffffffffffffffffffffffffffffffffff169050919050565b80806117da5750600073ffffffffffffffffffffffffffffffffffffffff168273ffffffffffffffffffffffffffffffffffffffff1614155b1561190e5760006117ea84610d47565b9050600073ffffffffffffffffffffffffffffffffffffffff168373ffffffffffffffffffffffffffffffffffffffff161415801561185557508273ffffffffffffffffffffffffffffffffffffffff168173ffffffffffffffffffffffffffffffffffffffff1614155b801561186857506118668184610c39565b155b156118aa57826040517fa9fbf51f0000000000000000000000000000000000000000000000000000000081526004016118a191906121bd565b60405180910390fd5b811561190c57838573ffffffffffffffffffffffffffffffffffffffff168273ffffffffffffffffffffffffffffffffffffffff167f8c5be1e5ebec7d5bd14f71427d1e84f3dd0314c0f7b2291e5b200ac8c7c3b92560405160405180910390a45b505b836004600085815260200190815260200160002060006101000a81548173ffffffffffffffffffffffffffffffffffffffff021916908373ffffffffffffffffffffffffffffffffffffffff16021790555050505050565b611971838383611c71565b611a2557600073ffffffffffffffffffffffffffffffffffffffff168373ffffffffffffffffffffffffffffffffffffffff16036119e657806040517f7e2732890000000000000000000000000000000000000000000000000000000081526004016119dd91906123a0565b60405180910390fd5b81816040517f177e802f000000000000000000000000000000000000000000000000000000008152600401611a1c9291906128eb565b60405180910390fd5b505050565b611a3482826108a2565b611a775780826040517fe2517d3f000000000000000000000000000000000000000000000000000000008152600401611a6e929190612914565b60405180910390fd5b5050565b611a858383611d32565b611a9260008484846113c6565b505050565b600080600090507a184f03e93ff9f4daa797ed6e38ed64bf6a1f0100000000000000008310611af5577a184f03e93ff9f4daa797ed6e38ed64bf6a1f0100000000000000008381611aeb57611aea6128bc565b5b0492506040810190505b6d04ee2d6d415b85acef81000000008310611b32576d04ee2d6d415b85acef81000000008381611b2857611b276128bc565b5b0492506020810190505b662386f26fc100008310611b6157662386f26fc100008381611b5757611b566128bc565b5b0492506010810190505b6305f5e1008310611b8a576305f5e1008381611b8057611b7f6128bc565b5b0492506008810190505b6127108310611baf576127108381611ba557611ba46128bc565b5b0492506004810190505b60648310611bd25760648381611bc857611bc76128bc565b5b0492506002810190505b600a8310611be1576001810190505b80915050919050565b611bf5848484611e2b565b611c01848484846113c6565b50505050565b60007f01ffc9a7000000000000000000000000000000000000000000000000000000007bffffffffffffffffffffffffffffffffffffffffffffffffffffffff1916827bffffffffffffffffffffffffffffffffffffffffffffffffffffffff1916149050919050565b60008073ffffffffffffffffffffffffffffffffffffffff168373ffffffffffffffffffffffffffffffffffffffff1614158015611d2957508273ffffffffffffffffffffffffffffffffffffffff168473ffffffffffffffffffffffffffffffffffffffff161480611cea5750611ce98484610c39565b5b80611d2857508273ffffffffffffffffffffffffffffffffffffffff16611d1083610dcf565b73ffffffffffffffffffffffffffffffffffffffff16145b5b90509392505050565b600073ffffffffffffffffffffffffffffffffffffffff168273ffffffffffffffffffffffffffffffffffffffff1603611da45760006040517f64a0ae92000000000000000000000000000000000000000000000000000000008152600401611d9b91906121bd565b60405180910390fd5b6000611db283836000610e26565b9050600073ffffffffffffffffffffffffffffffffffffffff168173ffffffffffffffffffffffffffffffffffffffff1614611e265760006040517f73c6ac6e000000000000000000000000000000000000000000000000000000008152600401611e1d91906121bd565b60405180910390fd5b505050565b600073ffffffffffffffffffffffffffffffffffffffff168273ffffffffffffffffffffffffffffffffffffffff1603611e9d5760006040517f64a0ae92000000000000000000000000000000000000000000000000000000008152600401611e9491906121bd565b60405180910390fd5b6000611eab83836000610e26565b9050600073ffffffffffffffffffffffffffffffffffffffff168173ffffffffffffffffffffffffffffffffffffffff1603611f1e57816040517f7e273289000000000000000000000000000000000000000000000000000000008152600401611f1591906123a0565b60405180910390fd5b8373ffffffffffffffffffffffffffffffffffffffff168173ffffffffffffffffffffffffffffffffffffffff1614611f92578382826040517f64283d7b000000000000000000000000000000000000000000000000000000008152600401611f899392919061265f565b60405180910390fd5b50505050565b6000604051905090565b600080fd5b600080fd5b60007fffffffff0000000000000000000000000000000000000000000000000000000082169050919050565b611fe181611fac565b8114611fec57600080fd5b50565b600081359050611ffe81611fd8565b92915050565b60006020828403121561201a57612019611fa2565b5b600061202884828501611fef565b91505092915050565b60008115159050919050565b61204681612031565b82525050565b6000602082019050612061600083018461203d565b92915050565b600081519050919050565b600082825260208201905092915050565b60005b838110156120a1578082015181840152602081019050612086565b60008484015250505050565b6000601f19601f8301169050919050565b60006120c982612067565b6120d38185612072565b93506120e3818560208601612083565b6120ec816120ad565b840191505092915050565b6000602082019050818103600083015261211181846120be565b905092915050565b6000819050919050565b61212c81612119565b811461213757600080fd5b50565b60008135905061214981612123565b92915050565b60006020828403121561216557612164611fa2565b5b60006121738482850161213a565b91505092915050565b600073ffffffffffffffffffffffffffffffffffffffff82169050919050565b60006121a78261217c565b9050919050565b6121b78161219c565b82525050565b60006020820190506121d260008301846121ae565b92915050565b6121e18161219c565b81146121ec57600080fd5b50565b6000813590506121fe816121d8565b92915050565b6000806040838503121561221b5761221a611fa2565b5b6000612229858286016121ef565b925050602061223a8582860161213a565b9150509250929050565b60008060006060848603121561225d5761225c611fa2565b5b600061226b868287016121ef565b935050602061227c868287016121ef565b925050604061228d8682870161213a565b9150509250925092565b6000819050919050565b6122aa81612297565b81146122b557600080fd5b50565b6000813590506122c7816122a1565b92915050565b6000602082840312156122e3576122e2611fa2565b5b60006122f1848285016122b8565b91505092915050565b61230381612297565b82525050565b600060208201905061231e60008301846122fa565b92915050565b6000806040838503121561233b5761233a611fa2565b5b6000612349858286016122b8565b925050602061235a858286016121ef565b9150509250929050565b60006020828403121561237a57612379611fa2565b5b6000612388848285016121ef565b91505092915050565b61239a81612119565b82525050565b60006020820190506123b56000830184612391565b92915050565b6123c481612031565b81146123cf57600080fd5b50565b6000813590506123e1816123bb565b92915050565b600080604083850312156123fe576123fd611fa2565b5b600061240c858286016121ef565b925050602061241d858286016123d2565b9150509250929050565b6000806040838503121561243e5761243d611fa2565b5b600061244c858286016121ef565b925050602061245d858286016121ef565b9150509250929050565b600080fd5b600080fd5b7f4e487b7100000000000000000000000000000000000000000000000000000000600052604160045260246000fd5b6124a9826120ad565b810181811067ffffffffffffffff821117156124c8576124c7612471565b5b80604052505050565b60006124db611f98565b90506124e782826124a0565b919050565b600067ffffffffffffffff82111561250757612506612471565b5b612510826120ad565b9050602081019050919050565b82818337600083830152505050565b600061253f61253a846124ec565b6124d1565b90508281526020810184848401111561255b5761255a61246c565b5b61256684828561251d565b509392505050565b600082601f83011261258357612582612467565b5b813561259384826020860161252c565b91505092915050565b600080600080608085870312156125b6576125b5611fa2565b5b60006125c4878288016121ef565b94505060206125d5878288016121ef565b93505060406125e68782880161213a565b925050606085013567ffffffffffffffff81111561260757612606611fa7565b5b6126138782880161256e565b91505092959194509250565b6000806040838503121561263657612635611fa2565b5b60006126448582860161213a565b9250506020612655858286016121ef565b9150509250929050565b600060608201905061267460008301866121ae565b6126816020830185612391565b61268e60408301846121ae565b949350505050565b7f4e487b7100000000000000000000000000000000000000000000000000000000600052601160045260246000fd5b60006126d082612119565b91507fffffffffffffffffffffffffffffffffffffffffffffffffffffffffffffffff820361270257612701612696565b5b600182019050919050565b600081905092915050565b600061272382612067565b61272d818561270d565b935061273d818560208601612083565b80840191505092915050565b60006127558285612718565b91506127618284612718565b91508190509392505050565b7f796f7520617265206e6f74206576656e74206f776e6572000000000000000000600082015250565b60006127a3601783612072565b91506127ae8261276d565b602082019050919050565b600060208201905081810360008301526127d281612796565b9050919050565b600081519050919050565b600082825260208201905092915050565b6000612800826127d9565b61280a81856127e4565b935061281a818560208601612083565b612823816120ad565b840191505092915050565b600060808201905061284360008301876121ae565b61285060208301866121ae565b61285d6040830185612391565b818103606083015261286f81846127f5565b905095945050505050565b60008151905061288981611fd8565b92915050565b6000602082840312156128a5576128a4611fa2565b5b60006128b38482850161287a565b91505092915050565b7f4e487b7100000000000000000000000000000000000000000000000000000000600052601260045260246000fd5b600060408201905061290060008301856121ae565b61290d6020830184612391565b9392505050565b600060408201905061292960008301856121ae565b61293660208301846122fa565b939250505056fea2646970667358221220668eee12cf0d04987e31f559dac9eb01f6372daf23f3124f1dc699ed6c49335a64736f6c63430008140033",
  "linkReferences": {},
  "deployedLinkReferences": {}
}