{
  "_format": "hh-sol-artifact-1",
  "contractName": "TokenTicketzNFT",
  "sourceName": "contracts/TokenTicketzNFT.sol",
  "abi": [
    {
      "inputs": [],
      "stateMutability": "nonpayable",
      "type": "constructor"
    },
    {
      "inputs": [],
      "name": "AccessControlBadConfirmation",
      "type": "error"
    },
    {
      "inputs": [
        {
          "internalType": "address",
          "name": "account",
          "type": "address"
        },
        {
          "internalType": "bytes32",
          "name": "neededRole",
          "type": "bytes32"
        }
      ],
      "name": "AccessControlUnauthorizedAccount",
      "type": "error"
    },
    {
      "inputs": [
        {
          "internalType": "address",
          "name": "sender",
          "type": "address"
        },
        {
          "internalType": "uint256",
          "name": "tokenId",
          "type": "uint256"
        },
        {
          "internalType": "address",
          "name": "owner",
          "type": "address"
        }
      ],
      "name": "ERC721IncorrectOwner",
      "type": "error"
    },
    {
      "inputs": [
        {
          "internalType": "address",
          "name": "operator",
          "type": "address"
        },
        {
          "internalType": "uint256",
          "name": "tokenId",
          "type": "uint256"
        }
      ],
      "name": "ERC721InsufficientApproval",
      "type": "error"
    },
    {
      "inputs": [
        {
          "internalType": "address",
          "name": "approver",
          "type": "address"
        }
      ],
      "name": "ERC721InvalidApprover",
      "type": "error"
    },
    {
      "inputs": [
        {
          "internalType": "address",
          "name": "operator",
          "type": "address"
        }
      ],
      "name": "ERC721InvalidOperator",
      "type": "error"
    },
    {
      "inputs": [
        {
          "internalType": "address",
          "name": "owner",
          "type": "address"
        }
      ],
      "name": "ERC721InvalidOwner",
      "type": "error"
    },
    {
      "inputs": [
        {
          "internalType": "address",
          "name": "receiver",
          "type": "address"
        }
      ],
      "name": "ERC721InvalidReceiver",
      "type": "error"
    },
    {
      "inputs": [
        {
          "internalType": "address",
          "name": "sender",
          "type": "address"
        }
      ],
      "name": "ERC721InvalidSender",
      "type": "error"
    },
    {
      "inputs": [
        {
          "internalType": "uint256",
          "name": "tokenId",
          "type": "uint256"
        }
      ],
      "name": "ERC721NonexistentToken",
      "type": "error"
    },
    {
      "anonymous": false,
      "inputs": [
        {
          "indexed": true,
          "internalType": "address",
          "name": "owner",
          "type": "address"
        },
        {
          "indexed": true,
          "internalType": "address",
          "name": "approved",
          "type": "address"
        },
        {
          "indexed": true,
          "internalType": "uint256",
          "name": "tokenId",
          "type": "uint256"
        }
      ],
      "name": "Approval",
      "type": "event"
    },
    {
      "anonymous": false,
      "inputs": [
        {
          "indexed": true,
          "internalType": "address",
          "name": "owner",
          "type": "address"
        },
        {
          "indexed": true,
          "internalType": "address",
          "name": "operator",
          "type": "address"
        },
        {
          "indexed": false,
          "internalType": "bool",
          "name": "approved",
          "type": "bool"
        }
      ],
      "name": "ApprovalForAll",
      "type": "event"
    },
    {
      "anonymous": false,
      "inputs": [
        {
          "indexed": true,
          "internalType": "bytes32",
          "name": "role",
          "type": "bytes32"
        },
        {
          "indexed": true,
          "internalType": "bytes32",
          "name": "previousAdminRole",
          "type": "bytes32"
        },
        {
          "indexed": true,
          "internalType": "bytes32",
          "name": "newAdminRole",
          "type": "bytes32"
        }
      ],
      "name": "RoleAdminChanged",
      "type": "event"
    },
    {
      "anonymous": false,
      "inputs": [
        {
          "indexed": true,
          "internalType": "bytes32",
          "name": "role",
          "type": "bytes32"
        },
        {
          "indexed": true,
          "internalType": "address",
          "name": "account",
          "type": "address"
        },
        {
          "indexed": true,
          "internalType": "address",
          "name": "sender",
          "type": "address"
        }
      ],
      "name": "RoleGranted",
      "type": "event"
    },
    {
      "anonymous": false,
      "inputs": [
        {
          "indexed": true,
          "internalType": "bytes32",
          "name": "role",
          "type": "bytes32"
        },
        {
          "indexed": true,
          "internalType": "address",
          "name": "account",
          "type": "address"
        },
        {
          "indexed": true,
          "internalType": "address",
          "name": "sender",
          "type": "address"
        }
      ],
      "name": "RoleRevoked",
      "type": "event"
    },
    {
      "anonymous": false,
      "inputs": [
        {
          "indexed": true,
          "internalType": "address",
          "name": "from",
          "type": "address"
        },
        {
          "indexed": true,
          "internalType": "address",
          "name": "to",
          "type": "address"
        },
        {
          "indexed": true,
          "internalType": "uint256",
          "name": "tokenId",
          "type": "uint256"
        }
      ],
      "name": "Transfer",
      "type": "event"
    },
    {
      "inputs": [],
      "name": "DEFAULT_ADMIN_ROLE",
      "outputs": [
        {
          "internalType": "bytes32",
          "name": "",
          "type": "bytes32"
        }
      ],
      "stateMutability": "view",
      "type": "function"
    },
    {
      "inputs": [
        {
          "internalType": "address",
          "name": "to",
          "type": "address"
        },
        {
          "internalType": "uint256",
          "name": "tokenId",
          "type": "uint256"
        }
      ],
      "name": "approve",
      "outputs": [],
      "stateMutability": "nonpayable",
      "type": "function"
    },
    {
      "inputs": [
        {
          "internalType": "address",
          "name": "owner",
          "type": "address"
        }
      ],
      "name": "balanceOf",
      "outputs": [
        {
          "internalType": "uint256",
          "name": "",
          "type": "uint256"
        }
      ],
      "stateMutability": "view",
      "type": "function"
    },
    {
      "inputs": [
        {
          "internalType": "uint256",
          "name": "tokenId",
          "type": "uint256"
        }
      ],
      "name": "burn",
      "outputs": [],
      "stateMutability": "nonpayable",
      "type": "function"
    },
    {
      "inputs": [
        {
          "internalType": "uint256",
          "name": "tokenId",
          "type": "uint256"
        }
      ],
      "name": "burnToken",
      "outputs": [],
      "stateMutability": "nonpayable",
      "type": "function"
    },
    {
      "inputs": [
        {
          "internalType": "uint256",
          "name": "tokenId",
          "type": "uint256"
        }
      ],
      "name": "checkOwnerOfToken",
      "outputs": [
        {
          "internalType": "address",
          "name": "tokenOwnerAddress",
          "type": "address"
        }
      ],
      "stateMutability": "view",
      "type": "function"
    },
    {
      "inputs": [
        {
          "internalType": "uint256",
          "name": "tokenId",
          "type": "uint256"
        }
      ],
      "name": "getApproved",
      "outputs": [
        {
          "internalType": "address",
          "name": "",
          "type": "address"
        }
      ],
      "stateMutability": "view",
      "type": "function"
    },
    {
      "inputs": [
        {
          "internalType": "bytes32",
          "name": "role",
          "type": "bytes32"
        }
      ],
      "name": "getRoleAdmin",
      "outputs": [
        {
          "internalType": "bytes32",
          "name": "",
          "type": "bytes32"
        }
      ],
      "stateMutability": "view",
      "type": "function"
    },
    {
      "inputs": [
        {
          "internalType": "bytes32",
          "name": "role",
          "type": "bytes32"
        },
        {
          "internalType": "address",
          "name": "account",
          "type": "address"
        }
      ],
      "name": "grantRole",
      "outputs": [],
      "stateMutability": "nonpayable",
      "type": "function"
    },
    {
      "inputs": [
        {
          "internalType": "bytes32",
          "name": "role",
          "type": "bytes32"
        },
        {
          "internalType": "address",
          "name": "account",
          "type": "address"
        }
      ],
      "name": "hasRole",
      "outputs": [
        {
          "internalType": "bool",
          "name": "",
          "type": "bool"
        }
      ],
      "stateMutability": "view",
      "type": "function"
    },
    {
      "inputs": [
        {
          "internalType": "address",
          "name": "owner",
          "type": "address"
        },
        {
          "internalType": "address",
          "name": "operator",
          "type": "address"
        }
      ],
      "name": "isApprovedForAll",
      "outputs": [
        {
          "internalType": "bool",
          "name": "",
          "type": "bool"
        }
      ],
      "stateMutability": "view",
      "type": "function"
    },
    {
      "inputs": [],
      "name": "name",
      "outputs": [
        {
          "internalType": "string",
          "name": "tokenName",
          "type": "string"
        }
      ],
      "stateMutability": "view",
      "type": "function"
    },
    {
      "inputs": [
        {
          "internalType": "uint256",
          "name": "tokenId",
          "type": "uint256"
        }
      ],
      "name": "ownerOf",
      "outputs": [
        {
          "internalType": "address",
          "name": "",
          "type": "address"
        }
      ],
      "stateMutability": "view",
      "type": "function"
    },
    {
      "inputs": [
        {
          "internalType": "bytes32",
          "name": "role",
          "type": "bytes32"
        },
        {
          "internalType": "address",
          "name": "callerConfirmation",
          "type": "address"
        }
      ],
      "name": "renounceRole",
      "outputs": [],
      "stateMutability": "nonpayable",
      "type": "function"
    },
    {
      "inputs": [
        {
          "internalType": "bytes32",
          "name": "role",
          "type": "bytes32"
        },
        {
          "internalType": "address",
          "name": "account",
          "type": "address"
        }
      ],
      "name": "revokeRole",
      "outputs": [],
      "stateMutability": "nonpayable",
      "type": "function"
    },
    {
      "inputs": [
        {
          "internalType": "address",
          "name": "to",
          "type": "address"
        }
      ],
      "name": "safeMint",
      "outputs": [
        {
          "internalType": "uint256",
          "name": "_tokenId",
          "type": "uint256"
        }
      ],
      "stateMutability": "nonpayable",
      "type": "function"
    },
    {
      "inputs": [
        {
          "internalType": "address",
          "name": "from",
          "type": "address"
        },
        {
          "internalType": "address",
          "name": "to",
          "type": "address"
        },
        {
          "internalType": "uint256",
          "name": "tokenId",
          "type": "uint256"
        }
      ],
      "name": "safeTransferFrom",
      "outputs": [],
      "stateMutability": "nonpayable",
      "type": "function"
    },
    {
      "inputs": [
        {
          "internalType": "address",
          "name": "from",
          "type": "address"
        },
        {
          "internalType": "address",
          "name": "to",
          "type": "address"
        },
        {
          "internalType": "uint256",
          "name": "tokenId",
          "type": "uint256"
        },
        {
          "internalType": "bytes",
          "name": "data",
          "type": "bytes"
        }
      ],
      "name": "safeTransferFrom",
      "outputs": [],
      "stateMutability": "nonpayable",
      "type": "function"
    },
    {
      "inputs": [
        {
          "internalType": "address",
          "name": "operator",
          "type": "address"
        },
        {
          "internalType": "bool",
          "name": "approved",
          "type": "bool"
        }
      ],
      "name": "setApprovalForAll",
      "outputs": [],
      "stateMutability": "nonpayable",
      "type": "function"
    },
    {
      "inputs": [
        {
          "internalType": "bytes4",
          "name": "interfaceId",
          "type": "bytes4"
        }
      ],
      "name": "supportsInterface",
      "outputs": [
        {
          "internalType": "bool",
          "name": "",
          "type": "bool"
        }
      ],
      "stateMutability": "view",
      "type": "function"
    },
    {
      "inputs": [],
      "name": "symbol",
      "outputs": [
        {
          "internalType": "string",
          "name": "",
          "type": "string"
        }
      ],
      "stateMutability": "view",
      "type": "function"
    },
    {
      "inputs": [
        {
          "internalType": "uint256",
          "name": "tokenId",
          "type": "uint256"
        }
      ],
      "name": "tokenURI",
      "outputs": [
        {
          "internalType": "string",
          "name": "",
          "type": "string"
        }
      ],
      "stateMutability": "view",
      "type": "function"
    },
    {
      "inputs": [],
      "name": "totalTicektsRegistered",
      "outputs": [
        {
          "internalType": "uint256",
          "name": "_totalTicekts",
          "type": "uint256"
        }
      ],
      "stateMutability": "view",
      "type": "function"
    },
    {
      "inputs": [
        {
          "internalType": "address",
          "name": "from",
          "type": "address"
        },
        {
          "internalType": "address",
          "name": "to",
          "type": "address"
        },
        {
          "internalType": "uint256",
          "name": "tokenId",
          "type": "uint256"
        }
      ],
      "name": "transferFrom",
      "outputs": [],
      "stateMutability": "nonpayable",
      "type": "function"
    },
    {
      "inputs": [
        {
          "internalType": "address",
          "name": "from",
          "type": "address"
        },
        {
          "internalType": "address",
          "name": "to",
          "type": "address"
        },
        {
          "internalType": "uint256",
          "name": "tokenId",
          "type": "uint256"
        }
      ],
      "name": "transferToken",
      "outputs": [],
      "stateMutability": "nonpayable",
      "type": "function"
    }
  ],
  "bytecode": "0x60806040523480156200001157600080fd5b506040518060400160405280600f81526020017f544f4b454e495a455449434b45545a00000000000000000000000000000000008152506040518060400160405280600381526020017f54545a000000000000000000000000000000000000000000000000000000000081525081600090816200008f919062000324565b508060019081620000a1919062000324565b5050506200040b565b600081519050919050565b7f4e487b7100000000000000000000000000000000000000000000000000000000600052604160045260246000fd5b7f4e487b7100000000000000000000000000000000000000000000000000000000600052602260045260246000fd5b600060028204905060018216806200012c57607f821691505b602082108103620001425762000141620000e4565b5b50919050565b60008190508160005260206000209050919050565b60006020601f8301049050919050565b600082821b905092915050565b600060088302620001ac7fffffffffffffffffffffffffffffffffffffffffffffffffffffffffffffffff826200016d565b620001b886836200016d565b95508019841693508086168417925050509392505050565b6000819050919050565b6000819050919050565b600062000205620001ff620001f984620001d0565b620001da565b620001d0565b9050919050565b6000819050919050565b6200022183620001e4565b6200023962000230826200020c565b8484546200017a565b825550505050565b600090565b6200025062000241565b6200025d81848462000216565b505050565b5b8181101562000285576200027960008262000246565b60018101905062000263565b5050565b601f821115620002d4576200029e8162000148565b620002a9846200015d565b81016020851015620002b9578190505b620002d1620002c8856200015d565b83018262000262565b50505b505050565b600082821c905092915050565b6000620002f960001984600802620002d9565b1980831691505092915050565b6000620003148383620002e6565b9150826002028217905092915050565b6200032f82620000aa565b67ffffffffffffffff8111156200034b576200034a620000b5565b5b62000357825462000113565b6200036482828562000289565b600060209050601f8311600181146200039c576000841562000387578287015190505b62000393858262000306565b86555062000403565b601f198416620003ac8662000148565b60005b82811015620003d657848901518255600182019150602085019450602081019050620003af565b86831015620003f65784890151620003f2601f891682620002e6565b8355505b6001600288020188555050505b505050505050565b612898806200041b6000396000f3fe608060405234801561001057600080fd5b50600436106101735760003560e01c80636352211e116100de578063a217fddf11610097578063c87b56dd11610071578063c87b56dd1461046c578063d547741f1461049c578063e985e9c5146104b8578063f5537ede146104e857610173565b8063a217fddf14610416578063a22cb46514610434578063b88d4fde1461045057610173565b80636352211e1461032e57806366c512f21461035e57806370a082311461037c5780637b47ec1a146103ac57806391d14854146103c857806395d89b41146103f857610173565b80632f2ff15d116101305780632f2ff15d1461025e578063305011801461027a57806336568abe146102aa57806340d097c3146102c657806342842e0e146102f657806342966c681461031257610173565b806301ffc9a71461017857806306fdde03146101a8578063081812fc146101c6578063095ea7b3146101f657806323b872dd14610212578063248a9ca31461022e575b600080fd5b610192600480360381019061018d9190611f09565b610504565b60405161019f9190611f51565b60405180910390f35b6101b0610516565b6040516101bd9190611ffc565b60405180910390f35b6101e060048036038101906101db9190612054565b610525565b6040516101ed91906120c2565b60405180910390f35b610210600480360381019061020b9190612109565b610541565b005b61022c60048036038101906102279190612149565b610557565b005b610248600480360381019061024391906121d2565b610659565b604051610255919061220e565b60405180910390f35b61027860048036038101906102739190612229565b610679565b005b610294600480360381019061028f9190612054565b61069b565b6040516102a191906120c2565b60405180910390f35b6102c460048036038101906102bf9190612229565b6106ad565b005b6102e060048036038101906102db9190612269565b610728565b6040516102ed91906122a5565b60405180910390f35b610310600480360381019061030b9190612149565b6107cd565b005b61032c60048036038101906103279190612054565b6107ed565b005b61034860048036038101906103439190612054565b610804565b60405161035591906120c2565b60405180910390f35b610366610816565b60405161037391906122a5565b60405180910390f35b61039660048036038101906103919190612269565b610820565b6040516103a391906122a5565b60405180910390f35b6103c660048036038101906103c19190612054565b6108da565b005b6103e260048036038101906103dd9190612229565b6108e6565b6040516103ef9190611f51565b60405180910390f35b610400610951565b60405161040d9190611ffc565b60405180910390f35b61041e6109e3565b60405161042b919061220e565b60405180910390f35b61044e600480360381019061044991906122ec565b6109ea565b005b61046a60048036038101906104659190612461565b610a00565b005b61048660048036038101906104819190612054565b610a1d565b6040516104939190611ffc565b60405180910390f35b6104b660048036038101906104b19190612229565b610a86565b005b6104d260048036038101906104cd91906124e4565b610aa8565b6040516104df9190611f51565b60405180910390f35b61050260048036038101906104fd9190612149565b610b3c565b005b600061050f82610b4c565b9050919050565b6060610520610516565b905090565b600061053082610bc6565b5061053a82610c4e565b9050919050565b610553828261054e610c8b565b610c93565b5050565b600073ffffffffffffffffffffffffffffffffffffffff168273ffffffffffffffffffffffffffffffffffffffff16036105c95760006040517f64a0ae920000000000000000000000000000000000000000000000000000000081526004016105c091906120c2565b60405180910390fd5b60006105dd83836105d8610c8b565b610ca5565b90508373ffffffffffffffffffffffffffffffffffffffff168173ffffffffffffffffffffffffffffffffffffffff1614610653578382826040517f64283d7b00000000000000000000000000000000000000000000000000000000815260040161064a93929190612524565b60405180910390fd5b50505050565b600060066000838152602001908152602001600020600101549050919050565b61068282610659565b61068b81610ebf565b6106958383610ed3565b50505050565b60006106a682610bc6565b9050919050565b6106b5610c8b565b73ffffffffffffffffffffffffffffffffffffffff168173ffffffffffffffffffffffffffffffffffffffff1614610719576040517f6697b23200000000000000000000000000000000000000000000000000000000815260040160405180910390fd5b6107238282610fc5565b505050565b6000806008600081548092919061073e9061258a565b91905055905061074e83826110b8565b8273ffffffffffffffffffffffffffffffffffffffff1661076e8261069b565b73ffffffffffffffffffffffffffffffffffffffff16146107c4576040517f08c379a00000000000000000000000000000000000000000000000000000000081526004016107bb9061261e565b60405180910390fd5b80915050919050565b6107e883838360405180602001604052806000815250610a00565b505050565b6108006000826107fb610c8b565b610ca5565b5050565b600061080f82610bc6565b9050919050565b6000600854905090565b60008073ffffffffffffffffffffffffffffffffffffffff168273ffffffffffffffffffffffffffffffffffffffff16036108935760006040517f89c62b6400000000000000000000000000000000000000000000000000000000815260040161088a91906120c2565b60405180910390fd5b600360008373ffffffffffffffffffffffffffffffffffffffff1673ffffffffffffffffffffffffffffffffffffffff168152602001908152602001600020549050919050565b6108e3816110d6565b50565b60006006600084815260200190815260200160002060000160008373ffffffffffffffffffffffffffffffffffffffff1673ffffffffffffffffffffffffffffffffffffffff16815260200190815260200160002060009054906101000a900460ff16905092915050565b6060600180546109609061266d565b80601f016020809104026020016040519081016040528092919081815260200182805461098c9061266d565b80156109d95780601f106109ae576101008083540402835291602001916109d9565b820191906000526020600020905b8154815290600101906020018083116109bc57829003601f168201915b5050505050905090565b6000801b81565b6109fc6109f5610c8b565b838361115c565b5050565b610a0b848484610557565b610a17848484846112cb565b50505050565b6060610a2882610bc6565b506000610a33611482565b90506000815111610a535760405180602001604052806000815250610a7e565b80610a5d84611499565b604051602001610a6e9291906126da565b6040516020818303038152906040525b915050919050565b610a8f82610659565b610a9881610ebf565b610aa28383610fc5565b50505050565b6000600560008473ffffffffffffffffffffffffffffffffffffffff1673ffffffffffffffffffffffffffffffffffffffff16815260200190815260200160002060008373ffffffffffffffffffffffffffffffffffffffff1673ffffffffffffffffffffffffffffffffffffffff16815260200190815260200160002060009054906101000a900460ff16905092915050565b610b47838383611567565b505050565b60007f7965db0b000000000000000000000000000000000000000000000000000000007bffffffffffffffffffffffffffffffffffffffffffffffffffffffff1916827bffffffffffffffffffffffffffffffffffffffffffffffffffffffff19161480610bbf5750610bbe82611587565b5b9050919050565b600080610bd283611669565b9050600073ffffffffffffffffffffffffffffffffffffffff168173ffffffffffffffffffffffffffffffffffffffff1603610c4557826040517f7e273289000000000000000000000000000000000000000000000000000000008152600401610c3c91906122a5565b60405180910390fd5b80915050919050565b60006004600083815260200190815260200160002060009054906101000a900473ffffffffffffffffffffffffffffffffffffffff169050919050565b600033905090565b610ca083838360016116a6565b505050565b600080610cb184611669565b9050600073ffffffffffffffffffffffffffffffffffffffff168373ffffffffffffffffffffffffffffffffffffffff1614610cf357610cf281848661186b565b5b600073ffffffffffffffffffffffffffffffffffffffff168173ffffffffffffffffffffffffffffffffffffffff1614610d8457610d356000856000806116a6565b6001600360008373ffffffffffffffffffffffffffffffffffffffff1673ffffffffffffffffffffffffffffffffffffffff168152602001908152602001600020600082825403925050819055505b600073ffffffffffffffffffffffffffffffffffffffff168573ffffffffffffffffffffffffffffffffffffffff1614610e07576001600360008773ffffffffffffffffffffffffffffffffffffffff1673ffffffffffffffffffffffffffffffffffffffff168152602001908152602001600020600082825401925050819055505b846002600086815260200190815260200160002060006101000a81548173ffffffffffffffffffffffffffffffffffffffff021916908373ffffffffffffffffffffffffffffffffffffffff160217905550838573ffffffffffffffffffffffffffffffffffffffff168273ffffffffffffffffffffffffffffffffffffffff167fddf252ad1be2c89b69c2b068fc378daa952ba7f163c4a11628f55a4df523b3ef60405160405180910390a4809150509392505050565b610ed081610ecb610c8b565b61192f565b50565b6000610edf83836108e6565b610fba5760016006600085815260200190815260200160002060000160008473ffffffffffffffffffffffffffffffffffffffff1673ffffffffffffffffffffffffffffffffffffffff16815260200190815260200160002060006101000a81548160ff021916908315150217905550610f57610c8b565b73ffffffffffffffffffffffffffffffffffffffff168273ffffffffffffffffffffffffffffffffffffffff16847f2f8788117e7eff1d82e926ec794901d17c78024a50270940304540a733656f0d60405160405180910390a460019050610fbf565b600090505b92915050565b6000610fd183836108e6565b156110ad5760006006600085815260200190815260200160002060000160008473ffffffffffffffffffffffffffffffffffffffff1673ffffffffffffffffffffffffffffffffffffffff16815260200190815260200160002060006101000a81548160ff02191690831515021790555061104a610c8b565b73ffffffffffffffffffffffffffffffffffffffff168273ffffffffffffffffffffffffffffffffffffffff16847ff6391f5c32d9c69d2a47ea670b442974b53935d1edc7fd64eb21e047a839171b60405160405180910390a4600190506110b2565b600090505b92915050565b6110d2828260405180602001604052806000815250611980565b5050565b60006110e56000836000610ca5565b9050600073ffffffffffffffffffffffffffffffffffffffff168173ffffffffffffffffffffffffffffffffffffffff160361115857816040517f7e27328900000000000000000000000000000000000000000000000000000000815260040161114f91906122a5565b60405180910390fd5b5050565b600073ffffffffffffffffffffffffffffffffffffffff168273ffffffffffffffffffffffffffffffffffffffff16036111cd57816040517f5b08ba180000000000000000000000000000000000000000000000000000000081526004016111c491906120c2565b60405180910390fd5b80600560008573ffffffffffffffffffffffffffffffffffffffff1673ffffffffffffffffffffffffffffffffffffffff16815260200190815260200160002060008473ffffffffffffffffffffffffffffffffffffffff1673ffffffffffffffffffffffffffffffffffffffff16815260200190815260200160002060006101000a81548160ff0219169083151502179055508173ffffffffffffffffffffffffffffffffffffffff168373ffffffffffffffffffffffffffffffffffffffff167f17307eab39ab6107e8899845ad3d59bd9653f200f220920489ca2b5937696c31836040516112be9190611f51565b60405180910390a3505050565b60008373ffffffffffffffffffffffffffffffffffffffff163b111561147c578273ffffffffffffffffffffffffffffffffffffffff1663150b7a0261130f610c8b565b8685856040518563ffffffff1660e01b81526004016113319493929190612753565b6020604051808303816000875af192505050801561136d57506040513d601f19601f8201168201806040525081019061136a91906127b4565b60015b6113f1573d806000811461139d576040519150601f19603f3d011682016040523d82523d6000602084013e6113a2565b606091505b5060008151036113e957836040517f64a0ae920000000000000000000000000000000000000000000000000000000081526004016113e091906120c2565b60405180910390fd5b805181602001fd5b63150b7a0260e01b7bffffffffffffffffffffffffffffffffffffffffffffffffffffffff1916817bffffffffffffffffffffffffffffffffffffffffffffffffffffffff19161461147a57836040517f64a0ae9200000000000000000000000000000000000000000000000000000000815260040161147191906120c2565b60405180910390fd5b505b50505050565b606060405180602001604052806000815250905090565b6060600060016114a88461199c565b01905060008167ffffffffffffffff8111156114c7576114c6612336565b5b6040519080825280601f01601f1916602001820160405280156114f95781602001600182028036833780820191505090505b509050600082602001820190505b60011561155c578080600190039150507f3031323334353637383961626364656600000000000000000000000000000000600a86061a8153600a85816115505761154f6127e1565b5b04945060008503611507575b819350505050919050565b61158283838360405180602001604052806000815250611aef565b505050565b60007f80ac58cd000000000000000000000000000000000000000000000000000000007bffffffffffffffffffffffffffffffffffffffffffffffffffffffff1916827bffffffffffffffffffffffffffffffffffffffffffffffffffffffff1916148061165257507f5b5e139f000000000000000000000000000000000000000000000000000000007bffffffffffffffffffffffffffffffffffffffffffffffffffffffff1916827bffffffffffffffffffffffffffffffffffffffffffffffffffffffff1916145b80611662575061166182611b0c565b5b9050919050565b60006002600083815260200190815260200160002060009054906101000a900473ffffffffffffffffffffffffffffffffffffffff169050919050565b80806116df5750600073ffffffffffffffffffffffffffffffffffffffff168273ffffffffffffffffffffffffffffffffffffffff1614155b156118135760006116ef84610bc6565b9050600073ffffffffffffffffffffffffffffffffffffffff168373ffffffffffffffffffffffffffffffffffffffff161415801561175a57508273ffffffffffffffffffffffffffffffffffffffff168173ffffffffffffffffffffffffffffffffffffffff1614155b801561176d575061176b8184610aa8565b155b156117af57826040517fa9fbf51f0000000000000000000000000000000000000000000000000000000081526004016117a691906120c2565b60405180910390fd5b811561181157838573ffffffffffffffffffffffffffffffffffffffff168273ffffffffffffffffffffffffffffffffffffffff167f8c5be1e5ebec7d5bd14f71427d1e84f3dd0314c0f7b2291e5b200ac8c7c3b92560405160405180910390a45b505b836004600085815260200190815260200160002060006101000a81548173ffffffffffffffffffffffffffffffffffffffff021916908373ffffffffffffffffffffffffffffffffffffffff16021790555050505050565b611876838383611b76565b61192a57600073ffffffffffffffffffffffffffffffffffffffff168373ffffffffffffffffffffffffffffffffffffffff16036118eb57806040517f7e2732890000000000000000000000000000000000000000000000000000000081526004016118e291906122a5565b60405180910390fd5b81816040517f177e802f000000000000000000000000000000000000000000000000000000008152600401611921929190612810565b60405180910390fd5b505050565b61193982826108e6565b61197c5780826040517fe2517d3f000000000000000000000000000000000000000000000000000000008152600401611973929190612839565b60405180910390fd5b5050565b61198a8383611c37565b61199760008484846112cb565b505050565b600080600090507a184f03e93ff9f4daa797ed6e38ed64bf6a1f01000000000000000083106119fa577a184f03e93ff9f4daa797ed6e38ed64bf6a1f01000000000000000083816119f0576119ef6127e1565b5b0492506040810190505b6d04ee2d6d415b85acef81000000008310611a37576d04ee2d6d415b85acef81000000008381611a2d57611a2c6127e1565b5b0492506020810190505b662386f26fc100008310611a6657662386f26fc100008381611a5c57611a5b6127e1565b5b0492506010810190505b6305f5e1008310611a8f576305f5e1008381611a8557611a846127e1565b5b0492506008810190505b6127108310611ab4576127108381611aaa57611aa96127e1565b5b0492506004810190505b60648310611ad75760648381611acd57611acc6127e1565b5b0492506002810190505b600a8310611ae6576001810190505b80915050919050565b611afa848484611d30565b611b06848484846112cb565b50505050565b60007f01ffc9a7000000000000000000000000000000000000000000000000000000007bffffffffffffffffffffffffffffffffffffffffffffffffffffffff1916827bffffffffffffffffffffffffffffffffffffffffffffffffffffffff1916149050919050565b60008073ffffffffffffffffffffffffffffffffffffffff168373ffffffffffffffffffffffffffffffffffffffff1614158015611c2e57508273ffffffffffffffffffffffffffffffffffffffff168473ffffffffffffffffffffffffffffffffffffffff161480611bef5750611bee8484610aa8565b5b80611c2d57508273ffffffffffffffffffffffffffffffffffffffff16611c1583610c4e565b73ffffffffffffffffffffffffffffffffffffffff16145b5b90509392505050565b600073ffffffffffffffffffffffffffffffffffffffff168273ffffffffffffffffffffffffffffffffffffffff1603611ca95760006040517f64a0ae92000000000000000000000000000000000000000000000000000000008152600401611ca091906120c2565b60405180910390fd5b6000611cb783836000610ca5565b9050600073ffffffffffffffffffffffffffffffffffffffff168173ffffffffffffffffffffffffffffffffffffffff1614611d2b5760006040517f73c6ac6e000000000000000000000000000000000000000000000000000000008152600401611d2291906120c2565b60405180910390fd5b505050565b600073ffffffffffffffffffffffffffffffffffffffff168273ffffffffffffffffffffffffffffffffffffffff1603611da25760006040517f64a0ae92000000000000000000000000000000000000000000000000000000008152600401611d9991906120c2565b60405180910390fd5b6000611db083836000610ca5565b9050600073ffffffffffffffffffffffffffffffffffffffff168173ffffffffffffffffffffffffffffffffffffffff1603611e2357816040517f7e273289000000000000000000000000000000000000000000000000000000008152600401611e1a91906122a5565b60405180910390fd5b8373ffffffffffffffffffffffffffffffffffffffff168173ffffffffffffffffffffffffffffffffffffffff1614611e97578382826040517f64283d7b000000000000000000000000000000000000000000000000000000008152600401611e8e93929190612524565b60405180910390fd5b50505050565b6000604051905090565b600080fd5b600080fd5b60007fffffffff0000000000000000000000000000000000000000000000000000000082169050919050565b611ee681611eb1565b8114611ef157600080fd5b50565b600081359050611f0381611edd565b92915050565b600060208284031215611f1f57611f1e611ea7565b5b6000611f2d84828501611ef4565b91505092915050565b60008115159050919050565b611f4b81611f36565b82525050565b6000602082019050611f666000830184611f42565b92915050565b600081519050919050565b600082825260208201905092915050565b60005b83811015611fa6578082015181840152602081019050611f8b565b60008484015250505050565b6000601f19601f8301169050919050565b6000611fce82611f6c565b611fd88185611f77565b9350611fe8818560208601611f88565b611ff181611fb2565b840191505092915050565b600060208201905081810360008301526120168184611fc3565b905092915050565b6000819050919050565b6120318161201e565b811461203c57600080fd5b50565b60008135905061204e81612028565b92915050565b60006020828403121561206a57612069611ea7565b5b60006120788482850161203f565b91505092915050565b600073ffffffffffffffffffffffffffffffffffffffff82169050919050565b60006120ac82612081565b9050919050565b6120bc816120a1565b82525050565b60006020820190506120d760008301846120b3565b92915050565b6120e6816120a1565b81146120f157600080fd5b50565b600081359050612103816120dd565b92915050565b600080604083850312156121205761211f611ea7565b5b600061212e858286016120f4565b925050602061213f8582860161203f565b9150509250929050565b60008060006060848603121561216257612161611ea7565b5b6000612170868287016120f4565b9350506020612181868287016120f4565b92505060406121928682870161203f565b9150509250925092565b6000819050919050565b6121af8161219c565b81146121ba57600080fd5b50565b6000813590506121cc816121a6565b92915050565b6000602082840312156121e8576121e7611ea7565b5b60006121f6848285016121bd565b91505092915050565b6122088161219c565b82525050565b600060208201905061222360008301846121ff565b92915050565b600080604083850312156122405761223f611ea7565b5b600061224e858286016121bd565b925050602061225f858286016120f4565b9150509250929050565b60006020828403121561227f5761227e611ea7565b5b600061228d848285016120f4565b91505092915050565b61229f8161201e565b82525050565b60006020820190506122ba6000830184612296565b92915050565b6122c981611f36565b81146122d457600080fd5b50565b6000813590506122e6816122c0565b92915050565b6000806040838503121561230357612302611ea7565b5b6000612311858286016120f4565b9250506020612322858286016122d7565b9150509250929050565b600080fd5b600080fd5b7f4e487b7100000000000000000000000000000000000000000000000000000000600052604160045260246000fd5b61236e82611fb2565b810181811067ffffffffffffffff8211171561238d5761238c612336565b5b80604052505050565b60006123a0611e9d565b90506123ac8282612365565b919050565b600067ffffffffffffffff8211156123cc576123cb612336565b5b6123d582611fb2565b9050602081019050919050565b82818337600083830152505050565b60006124046123ff846123b1565b612396565b9050828152602081018484840111156124205761241f612331565b5b61242b8482856123e2565b509392505050565b600082601f8301126124485761244761232c565b5b81356124588482602086016123f1565b91505092915050565b6000806000806080858703121561247b5761247a611ea7565b5b6000612489878288016120f4565b945050602061249a878288016120f4565b93505060406124ab8782880161203f565b925050606085013567ffffffffffffffff8111156124cc576124cb611eac565b5b6124d887828801612433565b91505092959194509250565b600080604083850312156124fb576124fa611ea7565b5b6000612509858286016120f4565b925050602061251a858286016120f4565b9150509250929050565b600060608201905061253960008301866120b3565b6125466020830185612296565b61255360408301846120b3565b949350505050565b7f4e487b7100000000000000000000000000000000000000000000000000000000600052601160045260246000fd5b60006125958261201e565b91507fffffffffffffffffffffffffffffffffffffffffffffffffffffffffffffffff82036125c7576125c661255b565b5b600182019050919050565b7f6d696e74696e6720746f6b656e206661696c6564000000000000000000000000600082015250565b6000612608601483611f77565b9150612613826125d2565b602082019050919050565b60006020820190508181036000830152612637816125fb565b9050919050565b7f4e487b7100000000000000000000000000000000000000000000000000000000600052602260045260246000fd5b6000600282049050600182168061268557607f821691505b6020821081036126985761269761263e565b5b50919050565b600081905092915050565b60006126b482611f6c565b6126be818561269e565b93506126ce818560208601611f88565b80840191505092915050565b60006126e682856126a9565b91506126f282846126a9565b91508190509392505050565b600081519050919050565b600082825260208201905092915050565b6000612725826126fe565b61272f8185612709565b935061273f818560208601611f88565b61274881611fb2565b840191505092915050565b600060808201905061276860008301876120b3565b61277560208301866120b3565b6127826040830185612296565b8181036060830152612794818461271a565b905095945050505050565b6000815190506127ae81611edd565b92915050565b6000602082840312156127ca576127c9611ea7565b5b60006127d88482850161279f565b91505092915050565b7f4e487b7100000000000000000000000000000000000000000000000000000000600052601260045260246000fd5b600060408201905061282560008301856120b3565b6128326020830184612296565b9392505050565b600060408201905061284e60008301856120b3565b61285b60208301846121ff565b939250505056fea2646970667358221220f0426361677614b1036ba952c61ed4d04662777bac72194aee38a91734fba7de64736f6c63430008140033",
  "linkReferences": {},
  "deployedLinkReferences": {}
}